:400000000080002011000000F9030000F903000080B500AF024A034B1B68136000F01AFABC760040FA46004008000223000008760800032300001076080004230000287681
:4000400008000523000030760500062300002070050007230000307005000823000060700500FE230000707010000A220000005120000B220000305110000C2200006051CD
:4000800010000D220000C0511000FE220000F05180070F22000000008001102200000008800011220000000A800412220000800B8001132200000014800114220000001675
:4000C0008001152200000018800116220000001A8000172200000041000418220000004480001922000000492000FE220000005007001B23000028520C001C230000004FF4
:400100000800FE230000285B08001E230000005180001F230000800A800020230000004D800021230000804D800022230000004C800023230000804C800024230000801B87
:400140008000252300008015800026230000801980002723000080178000282300008009800029230000800780002A230000000B80002B230000804980002C230000004832
:4001800080002D230000804880002E230000004380002F230000804380003023000000428000312300008042800032230000804180003323000000408000FE230000804046
:4001C0000100000001000000010000000048014001000000004800400100000000200140010000000020004010B5054C237833B9044B13B10448AFF300800123237010BD85
:40020000C081FF1F0000000050430000084B10B51BB108480849AFF300800848036803B910BD074B002BFBD0BDE81040184700BF0000000050430000C481FF1F0881FF1FE9
:400240000000000080B400AF034B01221A60BD465DF8047B704700BFF881FF1F00000000B0B590B000AF00F03DFE00F0E3FB0120002100F0EFFB564800F022FC0020002176
:4002800000F0E8FB534800F01BFC00F0EFFE00F007FF514801F070F800F0D6FF62B64F4B1B68002B00F08A804D4B1B889BB21BB2184601F019F8F863F86B01F029FA024616
:4002C0000B46104619464FF00002464B01F09EFB02460B461046194639A3D3E9002301F06BFA02460B46C7E90C23D7E90C0101F0FDFC03469BB2184600F088FED7E90C01D7
:400300004FF000024FF0804301F080FB02460B461046194601F0EAFC03469BB2184600F085FED7E90C0128A3D3E9002301F06EFB02460B46C7E90A23D7E90A014FF000022F
:400340004FF0000301F0A0FC0346002B09D14FF000002549D7E90A2301F058FB02460B4602E04FF00002214BC7E908233B4618461F49D7E9082302F009FC0020072100F01E
:4003800069FB3B46184600F09BFBF86B01F0C0F904460D4607F110031846164922462B4602F0F4FB0120072100F054FB07F11003184600F085FB094B00221A606FE700BFE2
:4003C00000000000E0FFEF400000000060E34641584300006843000045020000F881FF1FF481FF1F000014400000F03F0000F07F704300007843000080B400AFFEE700BF87
:4004000080B584B000AF7860104B1A687B6813441A460F4BD31AB3F5007F09DC0B4B1B68FB600A4B1A687B681344084A136007E001F0DAFE02460C2313604FF0FF33FB6092
:40044000FB6818461037BD4680BD00BF0C81FF1F1082FF1F80B586B000AF224B7B61224B3B61204B7B6135E03B691B68FB603B695B68BB603B699B683B6000237B600CE022
:40048000FB681A68BB681A60BB680433BB60FB680433FB607B6804337B607A683B689A42EED13B69DB683B6000237B6008E0BB6800221A60BB680433BB607B6804337B60AA
:4004C0007A683B689A42F2D13B6910333B617B69013B7B617B69002BC6D101F08BFEFFF7BFFEFEE701000000CC45000080B582B000AF174B174A1A60174A174B1B6843F4BF
:400500000073136000237B600FE07B68032B04D8124A7B6852F8233000E0114B11497A6841F822307B6801337B607B682F2BECD90D4B1B78DAB20D4B1A700D4B094A1A60AA
:4005400000F0C8F90B4B00221A600837BD4680BD0CED00E00004FA0514ED00E000000000F90300000080FF1FBC7600400481FF1F08ED00E00081FF1F80B584B000AFF86009
:40058000B9607A60F868B9687A6801F059FE1037BD4680BD80B483B000AF0346FB71FEE780B483B000AF434B00221A60424B10221A70424B01221A70414B00221A70414BDF
:4005C0004FF4CC721A80404B01221A703F4B03221A703F4B3F4A92B21A803F4B47F608021A803E4B00221A803D4B4FF480421A803C4B09221A703C4B0E221A703B4B1A2268
:400600001A703B4B1D221A70BFF35F8F394B01221A70BFF35F8F00BF2A4B1B889BB2002BFAD100237B600DE07B68DA00324B13441946324A7B6852F823309BB20B807B68C4
:4006400001337B607B68322BEED9BFF35F8F294B01221A70BFF35F8F00BF294B1B78DBB203F00103002BF8D100BF264B1B78DBB203F00103002BF8D100BF234B1B78DBB23D
:4006800003F00103002BF8D100BF204B1B78DBB203F00103002BF8D100BF1D4B1B78DBB203F00103002BF8D10C37BD465DF8047B704700BFE081FF1F007600401070004063
:4006C00019700040007800400278004003780040047800402800000006780040047600400676004029700040397000406970004079700040147000400C780040804300009D
:40070000187000402870004038700040687000407870004080B582B000AF334B00221A80324B19221A70324B20221A80314B18221A70314B02221A704FF0402308221A7046
:400740002E4B03221A702E4B2E4A1278D2B21A702D4B40F235221A802C4B41F251221A800023FB7019237B6014E0FB785B00DAB2274B1B78DBB203F00103DBB21343DBB28A
:4007800003F00303FB704FF4F07000F011FB7B68013B7B607B68002B02D0FB78032BE4D17B68002B02D10320FFF7F4FE194B4FF480721A80174B07221A70174B00221A70C4
:4007C000164B48221A70134B00221A70144B02221A70144A134B1B78DBB243F00303DBB213700837BD4680BD804000408240004084400040864000400043004000420040D8
:40080000A14600400801004922420040204200402542004004400040064000400840004001400040A243004080B483B000AF1E4B1B78FB711D4B1B78BB711D4B1B787B718E
:400840001C4AFB7903F00703DBB213701A4AFB791B09DBB21370154ABB7943F00303DBB21370134A7B7943F00303DBB21370134B10221A70124B40221A70124B40221A7063
:40088000114B01221A70114B20221A70084A7B791370064ABB7913700D4B44221A700C37BD465DF8047B7047CF010049F8460040F94600406E5800406F5800401D5100404D
:4008C000095900400B590040285B00402B5B00407658004080B500AF72B6274B01221A70FFF718FF254A254B1B78DBB243F00403DBB21370FFF754FE214A214B1B78DBB25B
:4009000043F00203DBB213701E4A1E4B1B78DBB243F00203DBB213701B4A1B4B1B78DBB243F04003DBB21370184A184B1B78DBB243F01003DBB21370154816490822FFF7AE
:400940001BFE154815490822FFF716FE144815490822FFF711FE144A134B1B78DBB243F00803DBB21370FFF75FFF104806490E22FFF702FE80BD00BF00480040E846004049
:400980000350014013500140A0430040C243004012510040240B0048225100402C0B004852510040340B004822430040B043004080B500AF282000F017FA032000F0C8F908
:4009C000052000F011FA032000F0C2F90F2000F00BFA032000F0BCF9012000F005FA022000F0B6F9052000F0FFF9062000F09EF80E2000F09BF82C2000F098F8082000F0FE
:400A000095F8012000F092F80C2000F08FF8032000F08CF8052000F0E7F980BD80B500AF0C2000F083F8024B01221A7080BD00BFE881FF1F80B500AF054B1B78002B04D163
:400A4000FFF7B6FF024B01221A70FFF7E7FF80BDE981FF1F80B582B000AF03460A46FB711346BB71FB79032B26D801A252F823F0810A00008F0A00009D0A0000AB0A000070
:400A8000BB79803BDBB2184600F050F815E0BB79403BDBB2184600F049F80EE0BB796C3BDBB2184600F042F807E0BB792C3BDBB2184600F03BF800E000BF0837BD4680BDD8
:400AC00080B584B000AF78600123FB737B681B78BB730BE0BB7B184600F00EF8FB7B7A6813441B78BB73FB7B0133FB73BB7B002BF0D11037BD4680BD80B584B000AF0346C9
:400B0000FB7100F02DF8FB791B09FB73FB7B184600F0E2F8FB7903F00F03FB73FB7B184600F0DAF81037BD4680BD00BF80B584B000AF0346FB7100F013F8FB791B09FB73FF
:400B4000FB7B184600F004F9FB7903F00F03FB73FB7B184600F0FCF81037BD4680BD00BF80B582B000AF4FF4CA737B60554A554B1B78DBB223F07F03DBB21370524B1B782A
:400B8000DBB223F00F03FB704F4AFB7843F00F03DBB213704D4B1B78DBB223F00F03FB704A4AFB7813704A4B1B78DBB223F00F03FB70474AFB781370424A424B1B78DBB2E0
:400BC00023F02003DBB213703E4A3E4B1B78DBB243F04003DBB21370002000F027F9394A384B1B78DBB243F01003DBB21370012000F01CF9374B1B78FB70324A314B1B781B
:400C0000DBB223F01003DBB21370002000F00EF9FB7803F00803FB702A4A2A4B1B78DBB243F01003DBB21370012000F0FFF8254A244B1B78DBB223F01003DBB21370FB78F0
:400C4000002B02D10A2000F0F1F87B68013B7B60FB78002B02D07B68002BBDD1194A194B1B78DBB223F04003DBB21370154A154B1B78DBB223F07F03DBB21370124A124BE3
:400C80001B78DBB223F00F03DBB213700F4B1B78DBB223F00F03FB700C4AFB7843F00F03DBB213700A4B1B78DBB223F00F03FB70074AFB7843F00F03DBB213700837BD4657
:400CC00080BD00BF205100402251004023510040245100402151004080B582B000AF0346FB711A4A194B1B78DBB243F02003DBB21370164A154B1B78DBB223F04003DBB29D
:400D00001370002000F092F8104A104B1B78DBB223F00F03DBB213700C490C4B1B78DAB2FB791343DBB243F01003DBB20B70012000F07CF8054A054B1B78DBB223F01003B2
:400D4000DBB213700837BD4680BD00BF2051004080B582B000AF0346FB71144A134B1B78DBB223F06003DBB21370104A0F4B1B78DBB223F00F03DBB213700C490B4B1B7800
:400D8000DAB2FB791343DBB243F01003DBB20B70012000F04BF8054A044B1B78DBB223F01003DBB213700837BD4680BD205100400230800803D000BF01380046FCD170473B
:400DC000EFF3108072B6704780F31088704700BF80B483B000AF0346FB7101BE0C37BD465DF8047B704700BF80B582B000AF786008E00C4B1B681846FFF7DAFF7B68A3F5AF
:400E000000437B607B68B3F5004FF2D8064B1B687A6802FB03F31846FFF7CAFF0837BD4680BD00BF1C81FF1F1481FF1F80B582B000AF0346FB80FB88044A127802FB03F356
:400E40001846FFF7B5FF0837BD4680BD1881FF1F80B584B000AF03463960FB710F4B1B68FB60FB791F2B02D90020FFF7B1FFFB7903F01F0310339B00FA6813441B68BB6079
:400E8000FB7903F01F0310339B00FA6813443A681A60BB6818461037BD4680BD08ED00E080B582B000AF03460A46FB711346BB71BB79072B02D90020FFF78AFFFB791F2BDB
:400EC00002D90020FFF784FFFB7903F01F0303F1604303F56443BA795201D2B21A700837BD4680BD80B500AF054B1B78002B04D100F008F8024B01221A7000F063F880BD73
:400F0000EA81FF1F80B582B000AF294A284B1B78DBB243F00203DBB21370264B1B78DBB223F07003FB71234AFB7943F01003DBB21370214A204B1B78DBB223F03003DBB241
:400F400013701D4A1C4B1B78DBB243F03003DBB21370194A184B1B78DBB223F00F03DBB21370154A144B1B78DBB243F00F03DBB213704FF6FF7000F049F84FF4004000F0E4
:400F800055F8002000F062F80C4A0C4B1B78DBB243F00103DBB21370094A094B1B78DBB243F00103DBB213700837BD4680BD00BF004F0040024F00400B4F0040A34300403A
:400FC000014F004080B400AF0D4A0D4B1B78DBB243F00103DBB213700A4A0A4B1B78DBB243F00103DBB21370074A074B1B78DBB243F00103DBB21370BD465DF8047B7047C0
:40100000A3430040B3430040004F004080B483B000AF0346FB80044AFB8813800C37BD465DF8047B704700BF044F004080B483B000AF0346FB80044AFB8813800C37BD46E0
:401040005DF8047B704700BF064F004080B483B000AF0346FB71044AFB7913700C37BD465DF8047B704700BF034F004080B400AF094A094B1B78DBB243F00103DBB213706E
:40108000064A064B1B78DBB243F00103DBB21370BD465DF8047B7047A2430040B243004080B500AF054B1B78002B04D100F008F8024B01221A7000F025F880BDEB81FF1FBB
:4010C00080B500AF102000F0A5F900200721FFF7E7FE00200849FFF7BBFE084A074B1B78DBB243F00603DBB213700C2000F084F8034B00221A8080BD6D13000009590040FA
:401100000682FF1F80B582B000AFFFF759FE0346FB712E4A2D4B1B78DBB243F00203DBB213702B4A2A4B1B78DBB243F00203DBB21370284A274B1B78DBB243F00203DBB27E
:401140001370254A244B1B78DBB243F00203DBB21370224B1B78BB71BB7943F00203BB71BB7943F00103BB711C4ABB7913701C4B18221A701B4A1B4B1B78DBB243F04003A2
:40118000DBB21370174A174B1B78DBB223F00303DBB21370144BC8221A70144B02221A70134A134B1B78DBB243F00803DBB213700A20FFF73BFE0F4B01221A60FB791846E8
:4011C000FFF702FE0837BD4680BD00BFAB430040BB430040A2430040B24300400B5900400E5900400D59004008590040164600402F5B004080E200E080B584B000AF03465A
:40120000FB71FB790A2B07D00C2B02D0082B06D008E0C223FB730BE08223FB7308E04223FB7305E0C223FB730020FFF7D1FD00BF044AFB7B1370FB79184600F015F8103784
:40124000BD4680BD0A59004080B400AF054A054B1B78DBB243F00103DBB21370BD465DF8047B70470859004080B584B000AF0346FB71FB790A2B08D00C2B02D0082B08D011
:401280000BE04FF48053FB600DE04FF48063FB6009E04FF48073FB6005E00023FB600020FFF796FD00BF0C4B00221A80FB6842F2107202FB03F303F6C413084A82FB03124C
:4012C000D212DB17D31A064A1360064B00221A801037BD4680BD00BF0482FF1FAD8BDB680082FF1FFC81FF1F90B585B000AF0346FB801A4B1B889BB2002B09D0174B1B8870
:401300009BB21AB213469B0013445B00FB6002E0134B1B68FB60134B1B889BB2FA889BB2D31A9BB2FB80B7F90630184600F0B8FD034618460C4900F007FE03461C46F868BE
:4013400000F0AEFD03462046194600F0B1FE0346BB60BB6818461437BD4690BD0482FF1F0082FF1F0682FF1F0000204180B400AFBD465DF8047B704780B582B000AF7860FB
:4013800000F03CF8786800F009F8072000F018F800F028F80837BD4680BD00BF80B485B000AF7860054B1B68FB60FB6840337A681A601437BD465DF8047B704708ED00E0C5
:4013C00080B483B000AF0346FB71054AFB795B01DBB213700C37BD465DF8047B704700BF00E400E080B400AF034B01221A60BD465DF8047B704700BF00E100E080B400AFE0
:40140000034B01221A60BD465DF8047B704700BF80E100E080B483B000AF0346FB71094B084A1278D2B2D1B2FA7922F00702D2B20A43D2B2D2B21A700C37BD465DF8047B26
:40144000704700BF8640004081F0004102E000BF83F0004330B54FEA41044FEA430594EA050F08BF90EA020F1FBF54EA000C55EA020C7FEA645C7FEA655C00F0E2804FEACC
:401480005454D4EB5555B8BF6D420CDD2C4480EA020281EA030382EA000083EA010180EA020281EA0303362D88BF30BD11F0004F4FEA01314FF4801C4CEA113102D0404206
:4014C00061EB410113F0004F4FEA03334CEA133302D0524263EB430394EA050F00F0A780A4F10104D5F1200E0DDB02FA0EFC22FA05F2801841F1000103FA0EF2801843FA52
:4015000005F359410EE0A5F120050EF1200E012A03FA0EFC28BF4CF0020C43FA05F3C01851EBE37101F0004507D54FF0000EDCF1000C7EEB00006EEB0101B1F5801F1BD314
:40154000B1F5001F0CD349085FEA30004FEA3C0C04F101044FEA445212F5800F80F09A80BCF1004F08BF5FEA500C50F1000041EB045141EA050130BD5FEA4C0C404141EBFD
:40158000010111F4801FA4F10104E9D191F0000F04BF01460020B1FA81F308BF2033A3F10B03B3F120020CDA0C3208DD02F1140CC2F10C0201FA0CF021FA02F10CE002F115
:4015C0001402D8BFC2F1200C01FA02F120FA0CFCDCBF41EA0C019040E41AA2BF01EB0451294330BD6FEA04041F3C1CDA0C340EDC04F11404C4F1200220FA04F001FA02F3F5
:4016000040EA030021FA04F345EA030130BDC4F10C04C4F1200220FA02F001FA04F340EA0300294630BD21FA04F0294630BD94F0000F83F4801306BF81F480110134013DE2
:401640004EE77FEA645C18BF7FEA655C29D094EA050F08BF90EA020F05D054EA000C04BF1946104630BD91EA030F1EBF0021002030BD5FEA545C05D14000494128BF41F061
:40168000004130BD14F580043CBF01F5801130BD01F0004545F0FE4141F470014FF0000030BD7FEA645C1ABF194610467FEA655C1CBF0B46024650EA013406BF52EA033587
:4016C00091EA030F41F4002130BD00BF90F0000F04BF0021704730B54FF4806404F132044FF000054FF0000150E700BF90F0000F04BF0021704730B54FF4806404F132041F
:4017000010F0004548BF40424FF000013EE700BF42004FEAE2014FEA31014FEA02701FBF12F07F4393F07F4F81F06051704792F0000F14BF93F07F4F704730B54FF460740F
:4017400001F0004521F0004120E700BF50EA010208BF704730B54FF000050AE050EA010208BF704730B511F0004502D5404261EB41014FF4806404F132045FEA915C3FF4C5
:40178000DCAE4FF003025FEADC0C18BF03325FEADC0C18BF033202EBDC02C2F1200300FA03FC20FA02F001FA03FE40EA0E0021FA02F11444C1E600BF70B54FF0FF0C4CF48C
:4017C000E06C1CEA11541DBF1CEA135594EA0C0F95EA0C0F00F0DEF82C4481EA030621EA4C5123EA4C5350EA013518BF52EA033541F4801143F4801338D0A0FB02CE4FF0BA
:401800000005E1FB02E506F00042E0FB03E54FF00006E1FB03569CF0000F18BF4EF0010EA4F1FF04B6F5007F64F5407404D25FEA4E0E6D4146EB060642EAC62141EA555193
:401840004FEAC52040EA5E504FEACE2EB4F1FD0C88BFBCF5E06F1ED8BEF1004F08BF5FEA500E50F1000041EB045170BD06F0004646EA010140EA020081EA0301B4EB5C04EF
:40188000C2BFD4EB0C0541EA045170BD41F480114FF0000E013C00F3AB8014F1360FDEBF002001F0004170BDC4F10004203C35DA0C341BDC04F11404C4F1200500FA05F322
:4018C00020FA04F001FA05F240EA020001F0004221F0004110EBD37021FA04F642EB06015EEA430E08BF20EAD37070BDC4F10C04C4F1200500FA04F320FA05F001FA04F246
:4019000040EA020001F0004110EBD37041F100015EEA430E08BF20EAD37070BDC4F1200500FA05F24EEA020E20FA04F301FA05F243EA020321FA04F001F0004121FA04F264
:4019400020EA020000EBD3705EEA430E08BF20EAD37070BD94F0000F0FD101F00046400041EB010111F4801F08BF013CF7D041EA060195F0000F18BF704703F000465200ED
:4019800043EB030313F4801F08BF013DF7D043EA0603704794EA0C0F0CEA135518BF95EA0C0F0CD050EA410618BF52EA4306D1D181EA030101F000414FF0000070BD50EA8A
:4019C000410606BF1046194652EA430619D094EA0C0F02D150EA013613D195EA0C0F05D152EA03361CBF104619460AD181EA030101F0004141F0FE4141F470014FF00000B1
:401A000070BD41F0FE4141F4780170BD70B54FF0FF0C4CF4E06C1CEA11541DBF1CEA135594EA0C0F95EA0C0F00F0A7F8A4EB050481EA030E52EA03354FEA013100F08880D1
:401A40004FEA03334FF0805545EA131343EA12634FEA022245EA111545EA10654FEA00260EF000419D4208BF964244F1FD0404F5407402D25B084FEA3202B61A65EB0305CB
:401A80005B084FEA32024FF480104FF4002CB6EB020E75EB030E22BFB61A754640EA0C005B084FEA3202B6EB020E75EB030E22BFB61A754640EA5C005B084FEA3202B6EBFB
:401AC000020E75EB030E22BFB61A754640EA9C005B084FEA3202B6EB020E75EB030E22BFB61A754640EADC0055EA060E18D04FEA051545EA16754FEA06164FEAC30343EA06
:401B000052734FEAC2025FEA1C1CC0D111F4801F0BD141EA00014FF000004FF0004CB6E711F4801F04BF01430020B4F1FD0C88BFBCF5E06F3FF6AFAEB5EB030C04BFB6EB59
:401B4000020C5FEA500C50F1000041EB045170BD0EF0004E4EEA113114EB5C04C2BFD4EB0C0541EA045170BD41F480114FF0000E013C90E645EA060E8DE60CEA135594EA48
:401B80000C0F08BF95EA0C0F3FF43BAF94EA0C0F0AD150EA01347FF434AF95EA0C0F7FF425AF104619462CE795EA0C0F06D152EA03353FF4FDAE1046194622E750EA4106A8
:401BC00018BF52EA43067FF4C5AE50EA41047FF40DAF52EA43057FF4EBAE12E74FF0FF3C06E000BF4FF0010C02E000BF4FF0010C4DF804CD4FEA410C7FEA6C5C4FEA430CBF
:401C000018BF7FEA6C5C1BD001B050EA410C0CBF52EA430C91EA030F02BF90EA020F0020704710F1000F91EA030F58BF994208BF90422CBFD8176FEAE37040F001007047DD
:401C40004FEA410C7FEA6C5C02D150EA013C07D14FEA430C7FEA6C5CD6D152EA033CD3D05DF8040B704700BF8446104662468C461946634600E000BF01B5FFF7B7FF002868
:401C800048BF10F1000F01BD4DF808EDFFF7F4FF0CBF012000205DF808FB00BF4DF808EDFFF7EAFF34BF012000205DF808FB00BF4DF808EDFFF7E0FF94BF012000205DF8AD
:401CC00008FB00BF4DF808EDFFF7CEFF94BF012000205DF808FB00BF4DF808EDFFF7C4FF34BF012000205DF808FB00BF4A0011D212F5001211D20DD56FF47873B3EB625291
:401D00000ED44FEAC12343F0004343EA505323FA02F070474FF00000704750EA013002D14FF0FF3070474FF00000704780F0004002E000BF81F0004142001FBF5FEA410399
:401D400092EA030F7FEA226C7FEA236C6AD04FEA1262D2EB1363C1BFD218414048404140B8BF5B42192B88BF704710F0004F40F4000020F07F4018BF404211F0004F41F452
:401D8000000121F07F4118BF494292EA030F3FD0A2F1010241FA03FC10EB0C00C3F1200301FA03F100F0004302D5494260EB4000B0F5000F13D3B0F1807F06D340084FEA01
:401DC000310102F10102FE2A51D2B1F1004F40EBC25008BF20F0010040EA03007047490040EB000010F4000FA2F10102EDD1B0FA80FCACF1080CB2EB0C0200FA0CF0AABFCA
:401E000000EBC25052421843BCBFD0401843704792F0000F81F4000106BF80F400000132013BB5E74FEA41037FEA226C18BF7FEA236C21D092EA030F04D092F0000F08BFE0
:401E40000846704790EA010F1CBF0020704712F07F4F04D1400028BF40F00040704712F100723CBF00F50000704700F0004343F0FE4040F4000070477FEA226216BF084673
:401E80007FEA23630146420206BF5FEA412390EA010F40F4800070474FF0000304E000BF10F0004348BF40425FEA000C08BF704743F0964301464FF000001CE050EA0102F2
:401EC00008BF70474FF000030AE000BF50EA010208BF704711F0004302D5404261EB41015FEA010C02BF84460146002043F0B64308BFA3F18053A3F50003BCFA8CF2083AE0
:401F0000A3EBC25310DB01FA02FC634400FA02FCC2F12002BCF1004F20FA02F243EB020008BF20F00100704702F1200201FA02FCC2F1200250EA4C0021FA02F243EB020035
:401F400008BF20EADC7070474FF0FF0C1CEAD0521EBF1CEAD15392EA0C0F93EA0C0F6FD01A4480EA010C400218BF5FEA41211ED04FF0006343EA501043EA5111A0FB013194
:401F80000CF00040B1F5000F3EBF490041EAD3715B0040EA010062F17F02FD2A1DD8B3F1004F40EBC25008BF20F00100704790F0000F0CF0004C08BF49024CEA502040EA8D
:401FC00051207F3AC2BFD2F1FF0340EAC250704740F400004FF00003013A5DDC12F1190FDCBF00F000407047C2F10002410021FA02F1C2F1200200FA02FC5FEA310040F16B
:40200000000053EA4C0308BF20EADC70704792F0000F00F0004C02BF400010F4000F013AF9D040EA0C0093F0000F01F0004C02BF490011F4000F013BF9D041EA0C018FE785
:402040000CEAD15392EA0C0F18BF93EA0C0F0AD030F0004C18BF31F0004CD8D180EA010000F00040704790F0000F17BF90F0004F084691F0000F91F0004F14D092EA0C0F5E
:4020800001D142020FD193EA0C0F03D14B0218BF084608D180EA010000F0004040F0FE4040F40000704740F0FE4040F4400070474FF0FF0C1CEAD0521EBF1CEAD15392EAF1
:4020C0000C0F93EA0C0F69D0A2EB030280EA010C49024FEA402037D04FF0805343EA111143EA10130CF000408B4238BF5B0042F17D024FF4000C8B4224BF5B1A40EA0C0098
:40210000B3EB510F24BFA3EB510340EA5C00B3EB910F24BFA3EB910340EA9C00B3EBD10F24BFA3EBD10340EADC001B0118BF5FEA1C1CE0D1FD2A3FF650AF8B4240EBC250FA
:4021400008BF20F0010070470CF0004C4CEA50207F32C2BFD2F1FF0340EAC250704740F400004FF00003013A37E792F0000F00F0004C02BF400010F4000F013AF9D040EA1A
:402180000C0093F0000F01F0004C02BF490011F4000F013BF9D041EA0C0195E70CEAD15392EA0C0F08D142027FF47DAF93EA0C0F7FF470AF084676E793EA0C0F04D14B0271
:4021C0003FF44CAF08466EE730F0004C18BF31F0004CCAD130F000427FF45CAF31F000437FF43CAF5FE700BF014B1868704700BF8081FF1F0E4B70B51E460E4C0025E41A5C
:40220000A410A54204D056F8253098470135F8E702F0CAF9084B094C1E46E41AA4100025A54204D056F8253098470135F8E770BDB4450000B4450000B4450000BC45000095
:4022400010B5431E0A44914204D011F8014B03F8014FF8E710BD03460244934202D003F8011BFAE770472DE9F0471E4688B0149F002BB8BF06F10043129927F02007B6BF3C
:402280001E4600232D23462F1446109DDDF84CA00B7003D0452F03D1013501E0032300E002238DE8280406AB039307AB04932246334600F021FD472F804602D1119BDB0775
:4022C00026D5462F08EB050911D198F80030302B0AD12046314600220023FFF7D5FC18B9C5F10105CAF80050DAF8003099442046314600220023FFF7C7FC08B1CDF81C9029
:40230000079B4B4504D25A1C079230221A70F7E74046079B159AC8EB0303136008B0BDE8F087034673B50029B8BF494203F8022BB4BF2D222B22092942701ADD0DF107043E
:4023400026460A2291FBF2F502FB1511092D01F1300104F8011D2946F3DC3031651E04F8011CB5421A460AD215F8012B03F8012BF7E71A463024214402F8024B5970101ABD
:4023800002B070BD2DE9F04F91B08B4615461E461A9F044601F06CFAD0F800A0504600F019FC00230E933B680990073323F0070303F108029BF818803A60D3E90023CBE90E
:4023C0001223DBE9120100F0B9FB0128DBE9120119D100220023FFF761FC10B12D238BF84330A04BA04FB8F1470F88BF1F460323CBF81030DBF8003023F00403CBF80030E6
:402400004FF00009A1E000F099FBDBF8003048B9964A974FB8F1470F88BF17460322CBF81020E9E7DBF80420DBE91201571CCDE90A0101D1062209E0B8F1670F02D0B8F17B
:40244000470F05D1002A40F0C7810122CBF80420DBF8042043F480638DE80C00CBF800300DF1330302930DAB03930EAB059300230693CDF81080DDE90A232046FFF7F3FE46
:4024800008F0DF03472B07460AD10D9BD81C03DBDBF80420934237DDA8F102085FFA88F8B8F1650F0D9915D8013942460BF150000D91FFF736FF0E9A81468318012ACBF853
:4024C000103003DCDBF80020D10738D50133CBF8103034E0B8F1660F18D10029DBF8043009DDCBF810101BB9DBF80020D20721D501330B441CE01BB9DBF80020D00701D511
:40250000023315E0012313E04FF067080D9B0E9A934207DBDBF80020CBF81030D10709D5013305E0002BD4BFC3F1020301231344CBF810300D9B4FF00009CBF858309DF81B
:40254000333013B12D238BF843300096204659460FAA2B4600F05CF9013002D14FF0FF3052E1DBF800305A0505D4204629463A46DBF8103008E1B8F1650F40F2D080DBE950
:40258000120100220023FFF77FFB50B320462946384A0123B0470130E0D00E9B0D9A9A4209DBDBF80030D80705D4DBF800309F0700F1108107E1204629465246099BB04717
:4025C0000130CBD000270E9B013B9F42EDDA204629460BF11A020123B0470130BED00137F1E70D9B002B29DC20462946214A0123B0470130B2D00D9B2BB90E9B1BB9DBF8C2
:402600000030D907D1D5204629465246099BB0470130A3D04FF000080D9B20465B429845294608DA0BF11A020123B047013095D008F10108F0E73A460E9BA5E0DBF858207D
:402640000E9B9A42A8BF1A46002A914602DC4FF000081CE0204629463A464B46B0470130F5D17BE7524400004E4400005A440000564400005E440000204629460BF11A02C7
:402680000123B04701303FF469AF08F10108DBF85830B9F1000FB4BF1A46C9EB03029045EADB07EB03080D9A0E9B9A4210DBDBF80030DA070CD40E9A1744C8EB07030D9F03
:4026C000D21B9342A8BF1346002B1F4608DC0EE0204629465246099BB0470130EBD13DE7204629464246B04701303FF437AF4FF000080AE0204629460BF11A020123B04706
:4027000001303FF42BAF08F101080D9A0E9B002FA3EB0203A8BFDB1B9845EBDB45E70E9A012A01DCDB0736D5204629463A460123B04701303FF412AF204629465246099BD8
:40274000B04701303FF40AAFDBE9120100220023FFF79AFAE8B90E9B204629467A1C013B1DE0204629460BF11A020123B04701303FF4F4AE01370E9B013B9F42F1DB204673
:4027800029464B460BF15002B04701307FF40DAFE4E60027EFE7204629463A460123B0470130ECD1DAE6204629460BF119020123B04701303FF4D2AE0137DBF80C300F9AB4
:4027C0009B1A9F42EFDBDBF80C000F9B9842B8BF184619E00027F0E743F480638DE80C00CBF800300DF1330302930DAB03930EAB059300230693CDF810802046DDE90A23EA
:40280000FFF731FD074640E611B0BDE8F08F00BF2DE9F84391461F468A680B6906469342B8BF1346C9F8003091F843200C46DDF8208012B10133C9F800302368990642BFC2
:40284000D9F800300233C9F80030256815F006051CD094F843302268003318BF012392061FD5E118302081F843005A1C94F845102244023382F8431013E03046394604F1C4
:4028800019020123C047013007D00135E368D9F800209B1A9D42F0DBDBE74FF0FF30BDE8F8833046394604F14302C0470130F4D02268D9F80050E36802F00602042A08BF99
:4028C0005D1B2269A3680CBF25EAE57500259342C4BF9B1AED184FF00009A9450ADA3046394604F11A020123C0470130D5D009F10109F2E70020BDE8F88300002DE9FF41CB
:402900000C461746227E98466E2A06460A9B01F1430100F0B08012D8632A23D00AD8002A00F0BD80582A40F0CC8084F84520DFF804E257E0642A1ED0692A1CD0C1E0732ADC
:4029400000F0B18009D86F2A2ED0702A40F0B980226842F0200222603FE0752A24D0782A3BD0AEE01A6804F14205111D1960136884F84230A9E020681A6810F0800F02D0AC
:40298000101D186008E010F0400F02F10400186002D0B2F9003000E01368002B3EDA2D225B4284F8432039E020681A6810F0800F02D0101D186007E010F0400F02F1040060
:4029C000186001D0138800E01368227EDFF864E16F2A0CBF08220A221CE07822DFF858E184F845202268186812F0800F00F104051D6003D1550601D5038800E00368D007D7
:402A000044BF42F0200222601BB9226822F0200222601022002084F8430002E0DFF814E10A226568002DA8BF2068A560A4BF20F00400206003B965B10D46B3FBF2F002FB27
:402A400010331EF8033005F8013D03460028F4D100E00D46082A0BD12368DA0708D5236962689A42DEBF302305F8013C05F1FF35491B21612EE025681A6815F0800F6069E9
:402A800003D0151D1D60136808E015F0400F02F104051D60136801D0188000E01860002323610D4616E01A68111D1960156800212846626800F0E8FE08B1401B60606368C4
:402AC00004E004F1420584F8422001232361002384F84330CDF800803046214603AA3B46FFF796FE013002D14FF0FF301FE0304639462A462369C0470130F5D023689B07B8
:402B000005D4E068039B9842B8BF18460FE00025E368039A9B1A9D42F3DA3046394604F119020123C0470130DED00135F0E704B0BDE8F081604400007144000031F0004327
:402B400010B51BD00F4AA1F58014944210D901F1FF410C4A01F5E001914209D9B3F5801F08D3094A934207D1B0FA80F0400910BD042010BD032010BD002010BD0028E6D150
:402B8000022010BDFFFFDF7F0000F07F0EB400B54FF402719CB0ADF814106FF00041049107914FF6FF711DABADF81610084953F8042B02900690086802A9019301F052FA25
:402BC000029B00221A701CB05DF804EB03B070478081FF1F034613F8012B002AFBD1181A013870472DE9F74F03690C698046A3427EDB013C01F114074FEA840E00F11406FA
:402C000006EB0E0357F82450019356F824300135B3FBF5F507EB0E09BDB34FF0000A3846B446D34650F8043B9AB21B0C02FB05A26B4303EB124392B2C2EB0B0BBCF800200E
:402C40004FEA134A5A441FFA83FBDCF800304845CBEB134303EB224392B242EA03424FEA234B4CF8042BDDD956F80E306BB9019B043BB3421A4602D8C8F8104005E01268EB
:402C8000043B002AF8D1013CF3E7404601F01BF800282BDB304601354FF0000E57F8042B036891B2C1EB0E0E120C99B27144C2EB134303EB214389B24FEA234E4F4541EA0F
:402CC000034340F8043BE9D956F8242006EB840362B9043BB3421A4602D8C8F8104005E01268043B002AF8D1013CF3E7284600E0002003B0BDE8F08F2DE9F04F456A95B07C
:402D00008246219CCDE9022345B9102000F0B4FDCAF82400456085600560C560DAF82430196859B15A68012393404A608B60504600F0EDFDDAF8243000221A60039BA24AAF
:402D4000002BBDBF01232360039B0023BCBF23F000430393039FA8BF236027F000431B0D1B0593421DD142F20F73209A1360029B43B9964A964BC7F31300002814BF184689
:402D8000104600E09248229B002B00F06985C37813B100F1080300E0C31C229A136000F05FBDDDE902450022204629460023FEF76BFF804658B1209A01231360229B002BBA
:402DC00000F03C8583481860013800F049BD13AB009312AB0193504622462B4600F0EEFFC7F30A5607905EB1C5F3130343F07F51204641F44011A6F2FF36CDF844801DE0F2
:402E0000139B129E1E446FF482639E42A1BF029A06F2124322FA03F06F4BB7BF6F4B9B1B029A9B1BAABF9F4002FA03F03843FEF74DFC0123A1F1F871013E11930022684B99
:402E4000FEF706FB5AA3D3E90023FEF7B5FC5AA3D3E90023FEF7FEFA044630460D46FEF745FC57A3D3E90023FEF7A6FC02460B4620462946FEF7EEFA04460D4601F040FA45
:402E800029468346002220460023FEF707FF58B15846FEF72BFC02460B4620462946FEF7F3FE08B90BF1FF3BBBF1160F0DD84D4B03EBCB03D3E90001DDE90223FEF70CFF74
:402EC00030B10BF1FF3B002300E00123109300E01090129B9E1B731E0A9345BF5B420993002300234CBF0A930993BBF1000F07DB0A9BCDF834B05B440A9300230B9308E046
:402F0000099BCBEB03030993CBF100030B9300230D931E9B092B29D8052BC4BF043B1E931E9BC8BF0025A3F10203D8BF0125032B21D8DFE803F0020E0410002300E00123FD
:402F40000C931F9B002B20DC0123069305931A4619E0002300E001230C931F9B5B4406930133012B0593B8BF012311E0012500231E930C9501E001230C934FF0FF3306939E
:402F80000593002212231F9202E01F9B06930593DAF8244000226260042101F114029A4222D86268490001326260F6E7AFF3008061436F63A787D23FB3C8608B288AC63FAE
:402FC000FB799F501344D33F0000F07F824400008B4400005F4400000EFCFFFFEEFBFFFF0000F83F984400005046616800F05AFCDAF8243020601B680893059B0E2B00F228
:403000004781002D00F04481DDE90223BBF1000FCDE90E2331DDB14A0BF00F034FEA2B1602EBC303F006D3E900450CD5DDE90E01AB4B06F00F06D3E90823FEF7E7FC03277F
:40304000CDE9020100E00227DFF8948276B1F10708D5D8E9002320462946FEF7ADFB04460D460137761008F10808EFE7DDE9020122462B46FEF7CAFC1BE0CBF10004DCB170
:40308000DDE90E01954B04F00F0203EBC203D3E90023FEF791FB924D241102274CB1E20704D5D5E900230137FEF786FB64100835F4E7CDE9020100E00227109BDBB1DDE96D
:4030C0000245002220462946864BFEF7E7FD90B1059B83B1069B002B40F3D680294620460022814BFEF768FB0BF1FF36CDE902010137069D01E05E46059D3846DDE90289A8
:40310000FEF7F4FA42464B46FEF756FB774B0022FEF7A0F9CDE90201039BA3F150740394CDB9404649460022714BFEF791F9029A234680468946FEF7CFFD002840F0408228
:4031400040464946029A04F10043FEF7A7FD002840F0308298E0614B0C996A1E03EBC203002947D0D3E9002300206249FEF74EFCDDE90223FEF76CF9CDE90201089C494665
:40318000404601F0BDF80746FEF7B0FA02460B4640464946FEF75CF9DDE90223303704F8017B80468946FEF779FD002840F0378342464B4600204B49FEF74AF9DDE9022333
:4031C000FEF76CFD002840F0D080089BE31AAB425ADADDE902010022434BFEF7EDFA0022CDE90201404B40464946FEF7E5FA80468946C4E7D3E90001DDE90223FEF7DCFAB1
:40320000089BCDE902015C191D464946404601F077F80746FEF76AFA02460B4640464946FEF716F9303705F8017BA5428046894623D100222F4BDDE90201FEF70BF9024697
:403240000B4640464946FEF747FD002840F08D80DDE9022300202749FEF7FAF802460B4640464946FEF71AFD70B114F8013C621E302B40F0D4821446F7E700221A4BFEF7AF
:403280009BFA80468946C0E7DDE90E23CDE90223139B002BC0F28A80BBF10E0F00F386800E4B03EBCB03D3E900671F9B002B23DA059B002B20DC40F07C81304600220C4B17
:4032C0003946FEF779FADDE90223FEF7FBFC059D2E46002840F06F8174E100BF98440000604500000000F03F0000244000001C40000014400000E03F089CDDE9028932464E
:403300003B4640464946FEF781FB00F0F9FF0546FEF7ECF932463B46FEF74EFA0B46024649464046FEF794F805F1300E089B04F801EBC3EB040E059B9E452AD102460B467E
:40334000FEF788F832463B4680468946FEF7C4FC70B94046494632463B46FEF795FC002800F05E82EB0703D45AE2B34600E01C4614F8012C631E392A07D1089A9342F6D16D
:403380003023137013460BF1010B1A7801321A7046E20022A34BFEF70FFA0022002380468946FEF771FC0028A9D039E20C9A002A32D01E9A012A0ADC119A12B103F23343E5
:4033C00002E0129BC3F136030B9D099C18E0059B5D1E0B9BAB42B7BF0B9B5D1BEA1A0D9BBEBF0B959B180D93059BB8BF0025002BB9BF099B059A099C059BBCBF9C1A0023F3
:40340000099A50461A4409920A9A01211A440A9200F01FFB064602E00B9D099C0C9E64B10A9B002B09DDA342A8BF2346099AE41AD21A09920A9AD31A0A930B9B002B20DDC7
:403440000C9BC3B1002D10DD31462A46504600F099FB0646079A3146504600F003FB07460799504600F053FA07970B9B5A1B08D05046079902E0504607990B9A00F082FB7D
:4034800007905046012100F0E4FA0D9B0546002B0ADD29461A46504600F074FB1E9B0546012B04DD00271BE01E9B012B13DC029B8BB9039BC3F313037BB9039B23F00047A8
:4034C0003F0D3F0557B1099B0127013309930A9B01330A9302E0002700E0029F0D9B43B12B6905EB8303186900F066FAC0F1200000E001200A9B184410F01F0008D0C0F1A6
:403500002003042B02DDC0F11C0002E008D018461C30099B0444034409930A9B03440A93099B002B05DD504607991A4600F078FB07900A9B002B05DD294650461A4600F089
:403540006FFB0546109BEBB10798294600F0BBFB002817DA0023504607990A2200F0EEF90C9B0BF1FF3B0790002B00F06B813146002350460A2200F0E1F9069B0646002B6D
:4035800033DC68E1059B002B26DC1E9B022B23DD059B0693069B73B929460522504600F0CDF905460798294600F08DFB002809DC01E000252E461F9B089C6FEA030B08E013
:4035C000B3462E46089B089A5C1C312313700BF1010BB14600260FE10C9B23B9059B0693089F079CC9E0059B0693002C05DD31465046224600F014FB0646AFB17168504630
:4036000000F050F90446326906F10C01023292000C30FEF715FE50462146012200F000FB814602E000002440B146089F079C29462046FFF7D7FA3146099000F130082046CA
:4036400000F041FB4A4605902946504600F057FBC26803463AB919462046079300F033FB079B024600E0012250461946079200F04EF9079A92B91E9B83B9029B03F00103A8
:4036800063B9B8F1390F3B4607943ED0059B7C1C002BC4BF099B03F131083DE0059B002B04DA002AC446079408DC21E024D11E9B13BB029B03F00103F3B9F2E72146012283
:4036C00050460597CDF8088000F0AAFA2946079000F0F9FA0028DDF808C0059B03DC07D118F0010F04D0B8F1390F0ED008F1010C7C1C87F800C07FE0002A07F101020EDDAB
:40370000B8F1390F3B46079403D1392201371A7057E0144608F1010887F800806CE0089B1746D31A02F8018C069A93423AD021460A220023504600F001F94E450446314630
:4037400050464FF00A024FF0000304D100F0F6F8064681466BE700F0F1F8494606460A225046002300F0EAF8814660E7214650460A22002300F0E2F8044620462946FFF76A
:4037800031FA089B00F1300807F8018B069AFB1A9342EBDB089BB146012AACBF9B1801331F46002621460122504600F039FA2946079000F088FA002803DC15D118F0010FD5
:4037C00012D03C4614F8013C621E392B09D1089B9A4204D10BF1010B3123089A02E01446F0E70133137007E03C4614F8013C621E302B01D11446F8E75046294600F087F836
:40380000B9F1000F0CD02EB14E4503D05046314600F07DF85046494600F079F800E0B3465046079900F073F80023209A23700BF101031360229B1BB11C6001E00A480FE042
:4038400008980DE0069B002B3FF7CAAE1E9B022B3FF7A0AEC4E61E9B022B3FF79BAEC4E615B0BDE8F08F00BF5E440000AFF30080004870478481FF1F024B0146186800F08C
:4038800041BB00BF8081FF1F10B5C9B202449042034605D01C7801308C42F8D1184610BD002010BD70B5456A04460E463DB91020FFF7E2FF6062456085600560C560656A30
:4038C000EB6843B1636ADB6853F8260078B1026843F8262017E020460421212200F0C0FA636AE860DB68002BECD1002070BD012101FA06F56A1D2046920000F0B1FA002896
:40390000F3D04660856000230361C36070BD70B5446A06460D463CB91020FFF7ADFF7062446084600460C4603DB1736A6A68DB6853F82210296043F8225070BD2DE9F04140
:4039400006460C460F69984601F1140E0023DEF80000013385B2010C02FB0585514301EB1541ADB24FEA1148BB4205EB01414EF8041BECDBB8F1000F1BD0A3689F4212DBA9
:40398000616830460131FFF78DFF0546226904F10C01023292000C30FEF752FC21463046FFF7B5FF2C4604EB87030137C3F8148027612046BDE8F081030C1B0413B90004FC
:4039C000102300E0002310F07F4F04BF0002083310F0704F04BF0001043310F0404F04BF80000233002803DB420003D5581C70471846704720207047036813F007020BD059
:403A0000D90722D49A074BBF5B089B08036003604CBF01200220704799B209B91B0C102213F0FF0F04BF1B0A0832190704BF1B090432990704BF9B080232D90702D45B080B
:403A400005D00132036010467047002070472020704710B50C460121FFF724FF01224461026110BD2DE9F74F14460A69236988469A42BEBF0B46A0461C46D8F81070D4F825
:403A80001090D8F80830D8F8041007EB09069E42C8BF0131FFF706FF00F114052B4605EB860C634503D2002243F8042BF9E704F1140208F1140102EB890301EB8707009360
:403AC000009B01929A4257D2B2F800B0BBF1000F23D08946AE464FF0000859F8044BBEF800A0A3B20BFB03A34FEA144ADEF8004043444FEA14480BFB0A84F24604EB1344AF
:403B00009BB243EA04434F454FEA14484AF8043B01D9D646E1E7CEF80480019B0432B3F802A0BAF1000F21D02C4689462B684FF00008B9F800E0B4F802B09BB20AFB0EBE20
:403B4000A346F04443EA08434BF8043B59F8043BB4F804E01B0C0AFB03E3B94503EB18434FEA134801D25C46E3E763600435A7E75CF8043D13B9013E002EF9DC066103B09B
:403B8000BDE8F08F12F003032DE9F04106460F46154607D0214A013B52F823200023FFF7CDFE0746AD1035D0746A3CB91020FFF763FE7062446084600460C460D6F82480EA
:403BC000D8F808407CB9304640F27121FFF741FF0023C8F808000446036004E06D1019D0206870B10446EB07F8D5394622463046FFF738FF804639463046FFF788FE474626
:403C0000ECE7304621462246FFF72CFF002320600360E7E73846BDE8F08100BF884500002DE9F0470C460746164623694FEA621A0AEB03094968A36809F101059D4202DD53
:403C400001315B00FAE73846FFF72CFE804600F114010023534504DA002241F823200133F8E72AEAEA73206901EB830316F01F0204F1140101EB800E14D0C2F1200C002028
:403C80000E689A469640304343F8040B51F8040B714520FA0CF0F3D3CAF8040048B109F1020506E0043B51F8042B714543F8042FF9D3013D3846C8F810502146FFF727FE86
:403CC0004046BDE8F08703690A6910B59B1A11D192001430143183180A4453F8044D52F8041D8C4202D007D3012010BD8342F4D8002010BD184610BD4FF0FF3010BD2DE97A
:403D0000F84307460C46084611461546FFF7DBFF061E08D138463146FFF7C4FD012303614661BDE8F883BCBF23462C4638466168BABF1D4601260026FFF7B4FD2B69C660BA
:403D4000266905F1140904F1140101EB860709EB830800F114054FF0000C51F8042B59F8044B93B29C44A3B2240CC3EB0C03C4EB124202EB23429BB24FEA224CC84543EA48
:403D800002428E4645F8042BE7D8BE450ED25EF8043B9AB262441B0C03EB224392B242EA03424FEA234C45F8042BEEE755F8043D0BB9013EFAE70661BDE8F8832DE9F341FB
:403DC0001C4601211546089F099EFFF76BFDC4F31302C4F30A5480460CB142F480120192EDB102A840F8085DFFF706FE009B50B1019AC0F1200102FA01F10B43C240C8F893
:403E00001430019201E0C8F81430019B002B14BF02250125C8F81830C8F8105009E001A8FFF7EAFD019B0125C8F81430C8F81050203034B1A4F2334404443C60C0F1350056
:403E400009E0A0F2324008EB850338601869FFF7B3FDC0EB45103060404602B0BDE8F08138B502FB01F4214600F04CF8054618B100212246FEF7EFF9284638BD30B50029D8
:403E80003CD051F8042C0B1F1D49002AB8BF9B180A680C4612B95A600B6030BD93420DD219685818904201BF5A5852181A60426823605A6030BD994203D80A46516800296F
:403EC000F9D1146815199D420AD11B682344D0188842136012D10868034413604B680CE002D90C23036030BD1C681819884201BF08684968001918605960536030BD00BF76
:403F0000F081FF1F70B5CC1C24F0030408340C2C38BF0C24002C064603DA0C233360002070BD8C42F9D3204A136810461946A1B10A68121B0ED40B2A03D90A608B188C50CA
:403F40001FE08B420BBF5A684A6802605A6018BF0B4616E00B464968E9E7144D2B681BB9304600F071F928603046214600F06CF9421C0346D1D0C51C25F0030585420AD1F1
:403F80001C6003F10B001A1D20F00700821A0AD05142995070BD3046E91A00F055F90130BBD02B46ECE770BDF081FF1FEC81FF1F2DE9F0478E688246B3420C469046994614
:403FC00040D38A8912F4906F3AD02568096902236F1A656905EB450595FBF3F57B1C4B449D4238BF1D4653050FD52946FFF78AFF064698B121693A46FEF722F9A38923F4E4
:40400000906343F08003A38113E02A4600F047F9064670B950462169FFF730FF0C23CAF80030A3894FF0FF3043F04003A381BDE8F08726613E4426604E466561ED1BA560FF
:40404000B14500D24E4632462068414600F00CF9A36800209B1BA36023681E442660BDE8F08700002DE9F0439DB003938B8906461C060D4690460CD50B6953B94021FFF766
:4040800041FF2860286110B90C233360CCE040236B610023099320238DF8293030238DF82A3043461C4613F8012B1AB9B4EB08090FD002E0252AF5D1F8E730462946424670
:4040C0004B46FFF775FF013000F0A980099B4B4409932378002B00F0A28000234FF0FF3204930793059206938DF853301A9304F101084446DFF84891217848460522FFF7AF
:40410000C3FB08F10108049B30B1C9EB00000122824013430493ECE7D80644BF20228DF85320190744BF2B228DF8532022782A2A02D0079923460EE0039A0134111D126832
:404140000391002ABBBF524243F0020307920792B8BF04930AE01C4622780133303A092A03D80A2000FB0121F5E7079123782E2B1AD163782A2B0AD1039B02341A1D1B6836
:404180000392002BB8BF4FF0FF3305930CE0611C00220C4623780131303B092B03D80A2000FB0232F5E70592DFF89880217840460322FFF769FB38B1049AC8EB00004023A5
:4041C000834013430493013421781A48062204F101088DF82810FFF757FB88B1164B33B9039B073323F007030833039313E003AB0093304604A92A46104BFEF7C3F807E0AF
:4042000003AB0093304604A92A460C4BFEF776FB421C074603D0099B3B44099341E7AB895B0601D4099801E04FF0FF301DB0BDE8F08300BF9E45000085230000B13F00000F
:40424000944500009A45000038B5064C0023054608462360FCF7D4F8431C02D1236803B12B6038BD0882FF1F814210B501EB020301D3421E0BE09842FBD28118D21AD342D7
:4042800004D013F8014D01F8014DF8E710BD994204D011F8014B02F8014FF8E710BDF8B5074615460E4621B91146BDE8F840FFF729BE1AB9FFF7E2FD2846F8BD00F015F888
:4042C000A8420ED238462946FFF71CFE044650B131462A46FDF7B4FF38463146FFF7CEFD01E03046F8BD2046F8BD51F8040C0028BEBF091851F8043CC018043870470000CE
:404300004FEA410212F5001215D211D56FF47873B3EB625212D94FEAC12343F0004343EA505311F0004F23FA02F018BF404270474FF00000704750EA013005D111F0004046
:4043400008BF6FF0004070474FF00000704700BF0000000000000000414443323D202020202020560000000046487A3D0000000025312E3266000000252B312E3266000076
:40438000E0010000D8010000D0010000C8010000C0010000C0010000C0010000C0010000E081FF1FE081FF1FE081FF1FE081FF1FE081FF1FE081FF1FE081FF1FE081FF1FAD
:4043C000E081FF1FE081FF1FE081FF1FE081FF1FE081FF1FE081FF1FE081FF1FE081FF1FE081FF1F00000048100000481C0000480800004824000048A4000048240100482D
:40440000A401004824020048A402004824030048A403004824040048A404004824050048A405004824060048A406004824070048A407004824080048A4080048240900486C
:40444000A4090048240A0048A40A00484300494E4600696E66004E414E006E616E003000303132333435363738394142434445460030313233343536373839616263646596
:404480006600496E66696E697479004E614E00504F534958002E0000000000000000F03F000000000000244000000000000059400000000000408F40000000000088C340C8
:4044C00000000000006AF8400000000080842E4100000000D01263410000000084D797410000000065CDCD41000000205FA00242000000E876483742000000A2941A6D422D
:40450000000040E59C30A2420000901EC4BCD64200003426F56B0C430080E03779C3414300A0D8855734764300C84E676DC1AB43003D9160E458E143408CB5781DAF15447A
:4045400050EFE2D6E41A4B4492D54D06CFF08044F64AE1C7022DB544B49DD9794378EA440080E03779C34143176E05B5B5B89346F5F93FE9034F384D321D30F94877825A02
:404580003CBF737FDD4F157505000000190000007D000000232D302B2000686C4C0065666745464700000000F8B500BFF8BC08BC9E4670470D020000ED040000F8B500BFE3
:4045C000F8BC08BC9E467047E9010000E04500000881FF1FB80000005000000000000000000000001082FF1F40B7280308CF00003500000000008467000000000000000021
:404600000000000000000000000000000000000000000000000000004C440000000000000000000000000000000000000000000000000000000000000000000000000000EA
:404640000000000000000000000000000000000000000000000000002081FF1F954400009945000099450000994500009945000099450000994500009945000099450000B2
:4046800099450000FFFFFFFFFFFFFFFFFFFFFFFFFFFF000000000000000000000000000000000000000000000000000000000000000000000000000000000000000000002A
:4046C00000000000000000000000000000000000000000000000000000000000000000000000000000000000000000000000000000000000000000000000000000000000BA
:404700000000000000000000000000000000000000000000000000000000000000000000000000000000000000000000000000000000000000000000000000000000000079
:404740000000000000000000000000000000000000000000000000000000000000000000000000000000000000000000000000000000000000000000000000000000000039
:4047800000000000000000000000000000000000000000000000000000000000000000000000000000000000000000000000000000000000000000000000000000000000F9
:020000040003F7
:0200000480007A
:4000000000010000000000000300000000000000000000000000000000004B00000000000000008400000000000000000000000000000000000000000000000000000000ED
:40004000000000000000000000000000000000000000000000000000000000002000000000001000000000000000000000000000000000000000000000000000040000004C
:40008000000000010000000000000000000000000000000000000000000000000000000000000000000000000000000000000000000000000000000000000000000000003F
:4000C00000000000000000000000000000000000000000000000000000000000000000000000000000000000000000000000000000000000010000000000000000000000FF
:4001000000000000000000000000000000000000000000000000000000000000000000000000000000000000000000000000000000000000020000000000000000000000BD
:4001400000000000000000000000000000000000000000800100000000000000000000000000000000000000000000000000000000000000000000000100000000000000FD
:40018000000000000000000000000000000000000400000000000000000000000000000000000000000000000000000000000000000000000000000000000000000000003B
:4001C000000000800000000000000000000000000000000000000000010000000000000000000000000000000000000000000000000000000000000000000000000000007E
:4002000000000000000000000000000000000000000000000000000000000000000000000000000000000000000000000000000000000000020000000000000000000000BC
:40024000000000000000000000000000000000000000000000000000010000000000000000000000000000000000010000000000010000000000000000000000000000007B
:40028000000000000000000000000000020000000000000000000000000000000000000000000000000000000000000000000000000000000000000000000000000000003C
:4002C00000000000000000000000000000000000000000000000000000000000000000000000000000000000000000000000000000000000000000000000000000000000FE
:400300000000000000000000000000000000000020000800000000000000000000000000000000000000000000000000000000000000000000000000000000000000000095
:40034000000000000000000000000000000000000000000000000000000000000000000000000000000000000000000000000000000000000000000000000000000000007D
:400380000000000000000000000000000000000020000800000000000000000000000000000000000000000000000000000000000000000000000000000000000000000015
:4003C00000000000000000000000000000000000000000000000000000000000000000000000000000000000000000000000000000000000000000000000000000000000FD
:40040000000000000000000000000000400000000000000000000000000000000000000000000000000000000000000000000000000000000000000000000000000000007C
:40044000000000000000000000000000000000000000000000000000000000000000000000000000000000000000000000000000000000000000000000000000000000007C
:4004800000000000000000000000000040000000000000000000000000000000000000000000000000000000000000000000000000000000000000000000000000000000FC
:4004C00000000000000000000000000000000000000000200000000000000000000000000000000000000000000000000000000000000000000000000000000000000000DC
:4005000000000000000000000000000000000000000000000000000000000000000000000000000000000000000000000000000000000000000000000000000000000000BB
:40054000000000000000000000000000000000000000000000000000000000000000000000000000000000000000000000000000000000000000000000000000000000007B
:400580000000000000000000000000000000000000000800000000000000000000000000000000000000000000000000000000000000000000000000000000000000000033
:4005C00000000020000000000000000000000000000000000000000000000000000000000000000000000000000000000000000000000000000000000000000000000000DB
:4006000000000000000000000000000000000000000000000000000000000000000000000000000000000000000000000000000000000000000000000000000000000000BA
:40064000000000000000000000000000000000000000002040000000000000000000000000000000000000000000000000000000000000000000000000000000000000001A
:40068000000000000000000000000000000000000000100000000000000000000000000000000000000000000000000000000000000000000000000000000000000000002A
:4006C000000000008000000000000000000000000000000000000000000000000000000000000000000000000000000000000000000000000000000000000000000000007A
:4007000000000000000000000000000000000000000000000000000000000000000000000000000000000000000000000000000000000000000000000000000000000000B9
:4007400000000000000000000000002000000000000000000000000040000000000000000000000000000000000000004000000000000000000000000000000000000000D9
:4007800000000000000000000000000000000000000000000000000000000000000000000000000000000000000000000000000000000000000000000000000040000000F9
:4007C00000000000000000000000000000000000000000000000000000000000000000000000000000000000000000000000000000000000000000000000000000000000F9
:4008000000000000000000000000000000000000000000000000000000000000000000000000000000000000000000000000000000000000000000000000000000000000B8
:400840000000000000000000000000200000000000000001000000000000000000000000000000000000000000001000000000000000000000000000000000000000000047
:400880000000000000000000000000000000000000001000000000000000000000000000000000000000000000000000000000000000000000000000000000000000000028
:4008C00000000000000000000000000000000000000000000000000000000000000000000000000000000000000000000000000000000000000000000000000000000000F8
:4009000000000000000000020000000000000000000000000000000000000000000000000000000000000000000000000000000000000000000000000000000000000000B5
:400940000000000000000000000000200000000000000000000000000000000000000000000000000000000000000000000000000000000000000000000040000000000017
:400980000000000000000000000000000000000000000000000000000000000000000000000000000000000000000000000000000000000000000000000000000000000037
:4009C00000000000000000000000002000000000000000000000000000000000000000000000000000000000000000000000000000000000000000000000000000000000D7
:400A000000000000000000000000000000000000000000000000000000000000000000000000000000000000000000000000000000000000000000000000000000000000B6
:400A40000000000000000000000000000000000000000000000000200000000000000000000000000000000000000000000000000000000000000000000000000000000056
:400A80000000000000000000000000000000000000000000000000000000000000000000000000000000000000000000000000000000000000000000000000000000000036
:400AC00000000000000000000000000000000000000000000000000000000000000000000000000000000000000000000000000010000000000000000000000000000000E6
:400B00000000000000000000000000000000000000000000000000000000000000000000000000000000000000001000007F7F0000000000000101000100000000000000A4
:400B40000000000000000000000000000000000000000000000000000000000000000000000000000000000000000000000000000000000000000000000000000000000075
:400B80000000000000000000000000000000000000000000000000000000000000000000000000000000000000000000000000000000000000000000000000000000000035
:400BC00000000000000000000000000000000000000000000000000000000000000000000000000000000000000000000000000000000000000000000000000000000000F5
:400C000000000000000000000000000000000000000000000000000000000000000000000000000000000000000000000000000000000000000000000000000000000000B4
:0200000490006A
:0400000000004005B7
:0200000490105A
:04000000BC90ACAF55
:0200000490303A
:02000000293E97
:0200000490402A
:4000000000000000000000000000000000000000000000000000000000000000000000000000000000000000000000000000000000000000000000000000000000000000C0
:400040000000000000000000000000000000000000000000000000000000000000000000000000000000000000000000000000000000000000000000000000000000000080
:400080000000000000000000000000000000000000000000000000000000000000000000000000000000000000000000000000000000000000000000000000000000000040
:4000C0000000000000000000000000000000000000000000000000000000000000000000000000000000000000000000000000000000000000000000000000000000000000
:0200000490501A
:0C00000000012E12306900012E2D59A7BE
:00000001FF