:400000000080002011000000010E0000010E000080B500AF024A034B1B68136000F0F4FEBC760040FA4600400800022300000876080003230000107608000423000028767D
:4000400008000523000030760500062300002070050007230000307005000823000060700500FE230000707010000A22000040511000FE220000C05180030C220000000058
:4000800080000D220000000480010E220000000880010F220000000A000410220000000C8001112200000018800112220000001A800013220000004280001422000000434B
:4000C00000011522000000448000FE220000004607001723000008520700182300002852070019230000785208001A230000784508001B230000D85A08001C230000885A97
:4001000008001D230000985A08001E230000285B20001F23000070642000FE230000706508002123000000518000222300008004800023230000000680002423000080066E
:400140008000252300000014800026230000801480002723000000168000282300008016100029230000105010002A230000005080002B230000004D80002C230000804DE5
:4001800080002D230000004C80002E230000804C80002F23000000478000302300008047800031230000804680003223000000458000332300008045800034230000801B12
:4001C0008000352300000015800036230000801580003723000080198000382300000017800039230000801780003A230000800980003B230000000780003C23000080071B
:4002000080003D230000800B80003E230000000580003F230000800580004023000080038000412300000049800042230000804980004323000000488000442300008048E8
:40024000800045230000804380004623000080428000472300000041800048230000804180004923000000408000FE23000080400100000001000000010000000048014038
:4002800001000000004800400100000000200140010000000020004010B5054C237833B9044B13B10448AFF300800123237010BD4881FF1F00000000C86D0000084B10B51C
:4002C0001BB108480849AFF300800848036803B910BD074B002BFBD0BDE81040184700BF00000000C86D00004C81FF1F0881FF1F0000000080B500AF01F01AF904F0B4FB7E
:4003000004F064F904F048FA03F058FF03F00AFD03F07EFF03F030FD0020012101F01EFE02F08AF804F05AFE62B680BD80B582B000AF03460A46FB711346BB71FB7918468C
:4003400004F00EFC0837BD4680BD00BF80B483B000AF786039607B68DAB23B681A703B6800225A703B6800229A703B684FF47A729A803B6801229A713B680022DA713B6850
:4003800000221A720C37BD465DF8047B704700BF80B483B000AF786039607B68DAB23B681A703B6800225A703B6800229A703B680022DA700C37BD465DF8047B704700BFDF
:4003C00080B582B000AF78607B6800201946FFF7BDFF7B680A3301201946FFF7B7FF7B68143300201946FFF7D3FF7B68183301201946FFF7CDFF0837BD4680BD80B485B0E6
:4004000000AF0346FB80FB88DBB203F00F03FB73FB7B0A3B032B13D801A252F823F000BF3104000035040000390400003D040000042306E0022304E0032302E0012300E025
:40044000082318461437BD465DF8047B704700BF80B483B000AF03463960FB71FB79002B02D0012B02D004E03B6803E03B680A3300E0002318460C37BD465DF8047B70470C
:4004800080B483B000AF78607B68002B00D102E07B6800225A700C37BD465DF8047B704780B582B000AF786039603B68002B00D10DE07B689AB23B689A803B68DB791A4697
:4004C0003B681B78786811461A4600F03FFC0837BD4680BD80B582B000AF03463960FB713B68002B00D10DE03B68FA79DA713B689B881946FA793B681B78084611461A4661
:4005000000F024FC0837BD4680BD00BF80B582B000AF03463960FB713B68002B00D108E03B68FA799A713B681B78FF201946FFF7FDFE0837BD4680BD80B5ADF51B6D00AF2F
:4005400007F2B4431A464FF49663104600211A4606F031FC3B1D1A464FF49663104600211A4606F028FC0023C7F898390023C7F89439FFF7BFFE07F664131846FFF720FF14
:400580000023A7F8AC390023A7F8AA390023A7F8A8390023A7F892390023A7F890390023A7F88E390023A7F88C390023A7F88A39002387F89F39002387F89E39002387F80A
:4005C0009D390023C7F8A0390023C7F88439002387F8AF39002387F8A53904F04FFC04F01DFD0346002B17D004F028FD0346A7F88239B7F88229B7F8A6399A4207D0B7F813
:400600008239A7F8A639012387F8A53902E0002387F8A53904F022FD00200021FFF776FF04F05AFC0346002B0CBF01230023DBB2184604F033FC4FF47A7001F0AFFB012018
:40064000002100F085FFB24800F0B8FF0120062100F07EFFB7F8A639184601F04FF90020002100F075FFAB4800F0A8FF97F8AF39082B00F2488101A252F823F0A10600002F
:400680007D070000B1070000D307000051070000210800004D08000029080000AD08000097F8A539002B52D0B7F8A6391B0B9BB20A2B4CD1B7F8A63903F0F0031B11A7F81C
:4006C0009039B7F8A63903F470631B12A7F88E39B7F89039002B03D0B7F89039012B0FD1B7F89039DAB207F6641310461946FFF7AFFEC7F8A009B7F88E39002B10D01DE096
:40070000B7F89039022B03D0B7F89039032B03D1082387F8AF39F6E0082387F8AF39F2E0D7F8A009FFF7ACFE0023A7F890390023A7F88E39002387F8AF3908E0B7F8A639CF
:400740001846FFF75BFE034687F8AF39DBE0DAE097F8A539002B10D0B7F8A639DBB2A7F89239B7F892393F2B03D9082387F8AF3903E0072387F8AF39C5E0C4E097F8A5392E
:40078000002B14D0B7F8A63903F00F03A7F8A839B7F8A839032B03D9082387F8AF3906E0072387F8AF39012387F89E39ABE0AAE097F8A539002B0BD0B7F8A639DBB2A7F8B8
:4007C000AA39072387F8AF39012387F89D399AE099E097F8A539002B21D0B7F8A639A7F8AC3900200B2100F0B3FEB7F8A639184601F084F8B7F8AC394CF25032934203D834
:40080000B7F8AC39312B03D8082387F8AF3906E0072387F8AF39012387F89F3973E072E0082387F8AF396EE097F8A539002B0CD0B7F8A639B3F5704F03D1062387F8AF3917
:4008400003E0082387F8AF395DE05CE097F89F39002B06D0B7F8AC391846D7F8A019FFF71FFE97F89E39002B07D0B7F8A839DBB21846D7F8A019FFF72DFE97F89D39002B79
:4008800007D0B7F8AA39DBB21846D7F8A019FFF73DFE002387F8AF39002387F89F39002387F89E39002387F89D392CE00023A7F8AC390023A7F8AA390023A7F8A839002318
:4008C000A7F892390023A7F890390023A7F88E390023A7F88C390023A7F88A390023C7F8A0390023C7F8843904F024FB0346002B0CBF01230023DBB2184604F0FDFA002382
:4009000087F8AF3900BF002387F8A53967E600BF746E00007C6E000080B582B000AF78607B68032B10D801A252F823F03D0900003D090000430900004309000003F068FCD7
:4009400002E003F019FA00BF0837BD4680BD00BF80B584B000AFF860B9607A60BB68032B3ED801A252F823F07909000093090000AD090000C70900007720012103F040FE3A
:40098000FB689BB2786819460022002303F026FC26E00520012103F033FEFB689BB2786819460022002303F019FC19E07720012103F00CFFFB689BB278681946002200235D
:4009C00003F0C0F90CE00520012103F0FFFEFB689BB2786819460022002303F0B3F900BF1037BD4680BD00BF80B485B000AF786039600023FB6015E07B68DA0F13445B10C6
:400A00001A46FB689A4205DDFB683A681344FF221A7004E0FB683A68134400221A70FB680133FB60FA687B689A42E5DB1437BD465DF8047B704700BF2DE9904385B000AF0A
:400A4000786039600023FB603FE0FB683A68D418F86805F037FE02460B461046194620A3D3E9002305F094FE02460B4690469946786805F027FE02460B464046494605F08B
:400A8000B1FF02460B461046194604F079FB02460B461046194614A3D3E9002305F078FE02460B46104619464FF00002104B05F0BDFC02460B461046194606F02BF9034638
:400AC000DBB22370FB680133FB60FA687B689A42BBDB1437BD46BDE8908300BFAFF30080F1D4C853FB2119400000000000C05F4000006040AFF300802DE9904385B000AF03
:400B0000786039600023FB6068E07B68DA0F13445B101A46FB689A422DDDFB683A68D418F86805F0CFFD80468946786805F0CAFD02460B46104619464FF000024FF0804373
:400B400005F050FF02460B464046494605F04AFF02460B461046194625A3D3E9002305F017FE02460B461046194606F0D3F80346DBB223702FE0FB683A68D4187A68FB6889
:400B8000D31A184605F09EFD80468946786805F099FD02460B46104619464FF000024FF0804305F01FFF02460B464046494605F019FF02460B46104619460DA3D3E900231E
:400BC00005F0E6FD02460B461046194606F0A2F80346DBB22370FB680133FB60FA687B689A4292DB1437BD46BDE89083AFF300800000000000E06F402DE9904385B000AFD2
:400C0000786039600023FB6025E0FB683A68D418F86805F057FD80468946786805F052FD02460B464046494605F0DCFE02460B46104619460CA3D3E9002305F0A9FD024631
:400C40000B461046194606F065F80346DBB22370FB680133FB60FA687B689A42D5DB1437BD46BDE8908300BF0000000000E06F4080B485B000AF786039600023FB6007E0AD
:400C8000FB683A681344FF221A70FB680133FB60FA687B689A42F3DB1437BD465DF8047B704700BF80B584B000AFF860B9607A60BB68042B25D801A252F823F0D10C000025
:400CC000DB0C0000E50C0000EF0C0000F90C0000F8687968FFF788FE13E0F8687968FFF7ABFE0EE0F8687968FFF706FF09E0F8687968FFF781FF04E0F8687968FFF7B8FFF0
:400D000000BF1037BD4680BD80B483B000AF78607B68032B0ED801A252F823F02D0D00002D0D0000310D0000310D0000054B02E0054B00E0002318460C37BD465DF8047B9B
:400D4000704700BF8481FF1F2491FF1F80B588B000AFF860B9607A60FB68312B02DC3223FB6005E0FB68234A934201DD214BFB60FB68B3F5FA6F10DA7B68002B02D10023C2
:400D8000FB6104E07B68012B01D10223FB611A4AFB6892FBF3F3BB610FE07B68002B02D10123FB6104E07B68012B01D10323FB61124AFB6892FBF3F3BB61F869FFF7A4FF5C
:400DC00078617B69002B0ED0F869FFF7A5FDB869B9687A69FFF766FFB869F9697A69FFF7B7FDFB6801E04FF0FF3318462037BD4680BD00BFA0860100400D030000093D007E
:400E000080B400AFFEE700BF80B586B000AF224B7B61224B3B61204B7B6135E03B691B68FB603B695B68BB603B699B683B6000237B600CE0FB681A68BB681A60BB68043357
:400E4000BB60FB680433FB607B6804337B607A683B689A42EED13B69DB683B6000237B6008E0BB6800221A60BB680433BB607B6804337B607A683B689A42F2D13B691033B1
:400E80003B617B69013B7B617B69002BC6D105F061FFFFF751FBFEE701000000648B000080B582B000AF184B184A1A60184A184B1B6843F40073136000237B600FE07B68FE
:400EC000032B04D8134A7B6852F8233000E0124B12497A6841F822307B6801337B607B682F2BECD90E4B1B78DAB20E4B1A700E4B0A4A1A6000F026FA00F026FD0B4B0022F5
:400F00001A600837BD4680BD0CED00E00004FA0514ED00E000000000010E00000080FF1FBC7600400481FF1F08ED00E00081FF1F80B582B000AF78603960786800213A689B
:400F400005F039FF0837BD4680BD00BF80B584B000AFF860B9607A60F868B9687A6805F01FFF1037BD4680BD80B483B000AF0346FB71FEE780B582B000AF454B00221A60B4
:400F8000444B10221A70444B01221A70434B00221A70434B4FF412721A80424B01221A70414B03221A70414B414A92B21A80414B47F608021A80404B00221A803F4B4FF496
:400FC00080421A803E4B09221A703E4B0B221A703D4B16221A703D4B20221A70BFF35F8F3B4B01221A70BFF35F8F00BF2C4B1B889BB2002BFAD100237B600DE07B68DA0042
:40100000344B13441946344A7B6852F823309BB20B807B6801337B607B68482BEED9BFF35F8F2B4B01221A70BFF35F8F00BF2B4B1B78DBB203F00103002BF8D100BF284BC1
:401040001B78DBB203F00103002BF8D100BF254B1B78DBB203F00103002BF8D100BF224B1B78DBB203F00103002BF8D100BF1F4B1B78DBB203F00103002BF8D11C484FF01D
:4010800090410622FFF762FF0837BD4680BD00BF6881FF1F007600401070004019700040007800400278004003780040047800402800000006780040047600400676004017
:4010C00029700040397000406970004079700040147000400C780040886E000018700040287000403870004068700040787000401051014080B582B000AF3F4B77221A8031
:401100003E4B19221A703E4B77221A803D4B19221A703D4B03221A803C4B18221A703C4B01221A803B4B19221A703B4B0B221A803A4B19221A703A4B0B221A80394B192295
:401140001A70394B06221A70384B52221A70384B384A1278D2B21A70374B40F61F521A80364B41F251221A800023FB7019237B6014E0FB785B00DAB2314B1B78DBB203F08B
:401180000103DBB21343DBB203F00303FB704FF4F07000F0C9FB7B68013B7B607B68002B02D0FB78032BE4D17B68002B02D10320FFF7DAFE234B4FF480721A80214B07222C
:4011C0001A70214B00221A70204B48221A701D4B00221A701E4B00221A701E4B02221A701D4A1D4B1B78DBB243F03F03DBB213700837BD4680BD00BF8040004082400040FA
:401200008440004086400040884000408A4000408C4000408E400040904000409240004094400040964000400043004000420040A14600400F010049224200402042004061
:40124000254200400440004006400040084000400940004001400040A243004080B483B000AF274B1B78FB71264B1B78BB71264B1B787B71254AFB7903F00703DBB213706F
:40128000234AFB791B09DBB213701E4ABB7943F00303DBB213701C4A7B7943F00303DBB213701C4B04221A701B4B20221A701B4B40221A701A4B40221A701A4B80221A7014
:4012C000194B80221A70194B04221A70184B02221A70184B04221A70174B20221A70174B02221A70084A7B791370064ABB791370134B44221A700C37BD465DF8047B7047F9
:40130000CF010049F8460040F94600406E5800406F5800401D5100406D510040095900400B5900408B5A00409B5A0040D85A0040DC5A0040285B00402B5B0040585B0040DA
:401340007658004080B500AF72B63C4B01221A70FFF7D0FE3A4A3A4B1B78DBB243F00403DBB21370FFF706FE364B40F203321A8035480421FFF7DCFD34480421FFF7D8FD8F
:4013800033480421FFF7D4FD32480421FFF7D0FD314A314B1B78DBB243F00203DBB213702E4A2E4B1B78DBB243F00203DBB213702B4A2B4B1B78DBB243F04003DBB213701B
:4013C000284A284B1B78DBB243F01003DBB21370254826490822FFF7B9FD254825490A22FFF7B4FD244825490822FFF7AFFD244824490822FFF7AAFD234824490822FFF7F4
:40140000A5FD234823490822FFF7A0FD224823490822FFF79BFD224BA4221A70214A214B1B78DBB243F00803DBB21370FFF716FF1D480B490E22FFF789FD80BD00480040B1
:40144000E84600404E580040007600400876004010760040187600400350014013500140A0430040C24300400251004030140048F0510040381400481251004044140048F9
:40148000225100404C1400483251004054140048525100405C14004862510040641400485B14014022430040B043004080B500AF282000F073FC032000F0D4F9052000F008
:4014C0006DFC032000F0CEF90F2000F067FC032000F0C8F9012000F061FC022000F0C2F9052000F05BFC062000F0AAF80E2000F0A7F82C2000F0A4F8082000F0A1F801208D
:4015000000F09EF80C2000F09BF8032000F098F8052000F043FC80BD80B500AF0C2000F08FF8024B01221A7080BD00BF7081FF1F80B500AF054B1B78002B04D1FFF7B6FF44
:40154000024B01221A70FFF7E7FF80BD7181FF1F80B582B000AF03460A46FB711346BB71FB79032B26D801A252F823F07D1500008B15000099150000A7150000BB79803B7D
:40158000DBB2184600F05CF815E0BB79403BDBB2184600F055F80EE0BB796C3BDBB2184600F04EF807E0BB792C3BDBB2184600F047F800E000BF0837BD4680BD80B584B023
:4015C00000AF78600123FB737B681B78BB730BE0BB7B184600F01AF8FB7B7A6813441B78BB73FB7B0133FB73BB7B002BF0D11037BD4680BD80B582B000AF0346FB71FB793D
:40160000184600F003F80837BD4680BD80B584B000AF0346FB7100F02DF8FB791B09FB73FB7B184600F0E2F8FB7903F00F03FB73FB7B184600F0DAF81037BD4680BD00BF99
:4016400080B584B000AF0346FB7100F013F8FB791B09FB73FB7B184600F004F9FB7903F00F03FB73FB7B184600F0FCF81037BD4680BD00BF80B582B000AF4FF4CA737B6085
:40168000554A554B1B78DBB223F07F03DBB21370524B1B78DBB223F00F03FB704F4AFB7843F00F03DBB213704D4B1B78DBB223F00F03FB704A4AFB7813704A4B1B78DBB2F1
:4016C00023F00F03FB70474AFB781370424A424B1B78DBB223F02003DBB213703E4A3E4B1B78DBB243F04003DBB21370002000F077FB394A384B1B78DBB243F01003DBB222
:401700001370012000F06CFB374B1B78FB70324A314B1B78DBB223F01003DBB21370002000F05EFBFB7803F00803FB702A4A2A4B1B78DBB243F01003DBB21370012000F02B
:401740004FFB254A244B1B78DBB223F01003DBB21370FB78002B02D10A2000F041FB7B68013B7B60FB78002B02D07B68002BBDD1194A194B1B78DBB223F04003DBB21370D1
:40178000154A154B1B78DBB223F07F03DBB21370124A124B1B78DBB223F00F03DBB213700F4B1B78DBB223F00F03FB700C4AFB7843F00F03DBB213700A4B1B78DBB223F0E7
:4017C0000F03FB70074AFB7843F00F03DBB213700837BD4680BD00BF205100402251004023510040245100402151004080B582B000AF0346FB711A4A194B1B78DBB243F0B0
:401800002003DBB21370164A154B1B78DBB223F04003DBB21370002000F0E2FA104A104B1B78DBB223F00F03DBB213700C490C4B1B78DAB2FB791343DBB243F01003DBB244
:401840000B70012000F0CCFA054A054B1B78DBB223F01003DBB213700837BD4680BD00BF2051004080B582B000AF0346FB71144A134B1B78DBB223F06003DBB21370104AAB
:401880000F4B1B78DBB223F00F03DBB213700C490B4B1B78DAB2FB791343DBB243F01003DBB20B70012000F09BFA054A044B1B78DBB223F01003DBB213700837BD4680BDF1
:4018C0002051004080B582B000AF0346FB71FB791B09DBB21A46084B9B5C1846FFF78AFEFB7903F00F03044AD35C1846FFF782FE0837BD4680BD00BFAC6F000080B582B037
:4019000000AF0346FB80FB881B0A9BB2DBB21846FFF7D8FFFB88DBB21846FFF7D3FF0837BD4680BD000000000230800803D000BF01380046FCD17047EFF3108072B6704732
:4019400080F31088704700BF80B483B000AF134B7F221A70124B80221A707F23FB710CE0FB79DB0003F1804303F5F043FA79013AD2B21A70FB79013BFB71FB79002BEFD15C
:40198000FB79DB0003F1804303F5F04300221A700C37BD465DF8047B704700BF0D81FF1F0C81FF1F80B485B000AF03460A46FB711346BB710123FB60FB79172B2FD8BB7951
:4019C000002B0ED0FB791A01184B1344FA791101164A0A441278D2B242F02002D2B21A700DE0FB791A01114B1344FA7911010F4A0A441278D2B222F02002D2B21A70FB79D3
:401A00001A010A4B1344FA791101084A0A441278D2B242F00102D2B21A700023FB60FB6818461437BD465DF8047B70471070004080B485B000AF0346FB710123FB60FB79D1
:401A4000172B1DD8FB791A01114B1344FA7911010F4A0A441278D2B222F00102D2B21A70FB791A010A4B1344FA791101084A0A441278D2B222F02002D2B21A700023FB6062
:401A8000FB6818461437BD465DF8047B704700BF1070004080B485B000AF03460A46FB711346BB710123FB60FB79172B18D8FB791A010F4B13441B78DBB223F00E03FB7255
:401AC000FB791A010A4B1344BA7902F00702D2B25200D1B2FA7A0A43D2B21A700023FB60FB6818461437BD465DF8047B704700BF1070004080B485B000AF0346FB710B46A0
:401B0000BB8013467B800123FB60BB8841F6FF72934202D14FF40053BB807B8841F6FF72934202D14FF400537B80FB79172B17D8FB79DB0003F1804303F5EC430433BB602B
:401B4000BB68BA881A80FB79DB0003F1804303F5EC430633BB60BB687A881A800023FB60FB6818461437BD465DF8047B704700BF80B485B000AF03460A46FB711346BB71AD
:401B80000123FB60FB79172B07D8FB791A01064B1344BA795A720023FB60FB6818461437BD465DF8047B70471070004090B484B000AF0446084611461A462346FB7103466F
:401BC000BB710B467B7113463B710123FB60FB79172B34D8FB79DB0003F1804303F5EC43BA7902F07F02D1B27A79D201D2B20A43D2B21A70FB79DB0003F1804303F5EC430E
:401C00003A7E1201D1B23A7902F00F02D2B20A43D2B25A70FB79DB0003F1804303F5EC433A7F02F00F02D2B29A70FB79DB0003F1804303F5EC430022DA700023FB60FB6890
:401C400018461037BD4690BC704700BF80B582B000AFFF23FB71FFF76FFE0346BB71104B1B78182B12D90F4B1B78FB710C4B1B78013BDAB20A4B1A70FB79DB0003F1804372
:401C800003F5F0431B78DAB2064B1A70BB791846FFF756FEFB7918460837BD4680BD00BF0C81FF1F0D81FF1F90B484B000AF0446084611461A462346FB710346BB800B469C
:401CC000BB711346FB700123FB60FB795BB2002B23DBBB8823F47F6323F00F039BB2002B1BD1FB79DB0003F1804303F5F043BB60BB68BA881A80FB79DB0003F1804303F5BD
:401D0000F043BA799A70FB79DB0003F1804303F5F043FA78DA700023FB60FB6818461037BD4690BC704700BF80B485B000AF0346FB710B46BB8013467B800123FB60FB795B
:401D40005BB2002B17DBFB79DB0003F1804303F5F0430433BB60BB68BA881A80FB79DB0003F1804303F5F0430633BB60BB687A881A800023FB60FB6818461437BD465DF891
:401D8000047B704780B483B000AF0346FB7101BE0C37BD465DF8047B704700BF80B582B000AF786008E00C4B1B681846FFF7BCFD7B68A3F500437B607B68B3F5004FF2D8D9
:401DC000064B1B687A6802FB03F31846FFF7ACFD0837BD4680BD00BF2081FF1F1881FF1F80B582B000AF0346FB80FB88044A127802FB03F31846FFF797FD0837BD4680BDFA
:401E00001C81FF1F80B584B000AF03463960FB710F4B1B68FB60FB791F2B02D90020FFF7B1FFFB7903F01F0310339B00FA6813441B68BB60FB7903F01F0310339B00FA6863
:401E400013443A681A60BB6818461037BD4680BD08ED00E080B582B000AF03460A46FB711346BB71BB79072B02D90020FFF78AFFFB791F2B02D90020FFF784FFFB7903F0F9
:401E80001F0303F1604303F56443BA795201D2B21A700837BD4680BD80B483B000AF7860264B1B78DBB21A467B681A60244B1B78DBB21B027A6812681A437B681A60214B4D
:401EC0001B78DBB21B047A6812681A437B681A601D4B1B78DBB21B067A6812681A437B681A607B680433194A1278D2B21A60184B1B78DBB21A027B68043379680431096889
:401F00000A431A60134B1B78DBB21A047B6804337968043109680A431A600F4B1B78DBB21A067B6804337968043109680A431A600C37BD465DF8047B704700BF03010049F7
:401F400004010049EC460040020100490101004900010049050100490601004980B582B000AF03460A46FB711346BB71084B1B78002B04D100F00EF8054B01221A70FA7935
:401F8000BB791046194600F0D5F80837BD4680BD7281FF1F80B582B000AFFFF7CDFC0346FB71534A524B1B78DBB243F00103DBB21370504A4F4B1B78DBB243F00103DBB2A8
:401FC00013704D4B01221A704C4B02221A704C4A4B4B1B78DBB203F07F03DBB213700020FFF7FEFE474A474B1B78DBB223F00603DBB21370444A444B1B78DBB223F020030F
:40200000DBB213703F4A3F4B1B78DBB243F00103DBB213700120FFF7E3FE2820FFF7E0FE3A4A3A4B1B78DBB203F07F03DBB21370364A364B1B78DBB223F04003DBB21370CD
:40204000304A304B1B78DBB243F00203DBB213700220FFF7C5FE2B4A2A4B1B78DBB243F00403DBB213702A4B00221A70294B00221A70FB791846FFF763FC17200721FFF717
:40208000E9FE17202449FFF7BDFE18200721FFF7E1FE18202149FFF7B5FE15200721FFF7D9FE15201E49FFF7ADFE04200721FFF7D1FE04201B49FFF7A5FE05200721FFF788
:4020C000C9FE05201849FFF79DFE06200721FFF7C1FE06201549FFF795FE0C200721FFF7B9FE0C201249FFF78DFE0837BD4680BDA5430040B54300409D6000400960004024
:40210000106000409443004012600040F85100408460004085600040A52C000075250000992C0000952B0000E92B00003D2C0000B12C000080B582B000AF03460A46FB71EF
:402140001346BB712E4AFB7913702E4B00221A702D4B00221A702D4B00221A702C4B00221A702C4B00221A702B4B00221A702B4B00221A702A4B4FF400021A60284B4FF08E
:4021800080721A60264B4FF400121A60244B10221A60234B20221A60214B40221A60BB79002B02D0012B09D011E01E4A1D4B1B78DBB223F00103DBB2137011E0194A194BF0
:4021C0001B78DBB243F00103DBB2137008E0154A144B1B78DBB243F00103DBB2137000BF114B03221A70114B80221A700120FFF79BFB0F4B04221A700837BD4680BD00BF24
:40220000DDA0FF1FE0A0FF1FFCA0FF1FFFA0FF1FF4A0FF1FFEA0FF1F01A1FF1FDCA0FF1F00E100E00960004028600040086000401260004080B400AF0F4B00221A700F4B57
:4022400000221A700E4B00221A700E4B00221A700D4B00221A700D4B00221A700C4B00221A700C4B03221A700B4B80221A70BD465DF8047B704700BFE0A0FF1FFCA0FF1F70
:40228000FFA0FF1FF4A0FF1FFEA0FF1F01A1FF1FDCA0FF1F286000400860004090B482B000AF0346FB71FB79002B19D0FB79082B16D8FA790C4913465B0013449B000B4475
:4022C00000225A700948F979FA79074C13465B0013449B0023445B79DAB20B0103449A700837BD4690BC704704A1FF1FFC5F004080B582B000AF0023FB71324B1B79DBB2B9
:40230000184600F069F80346BB712E4B1B78DBB2DBB25BB2002B16DA2A4B5B78DBB2212B00D00FE0284B07221A80BA791346DB009B1A264A1344244A536000F095FA034649
:40234000FB7100BF38E01F4B5B78DBB2202B02D0222B1AD030E01C4B07221A80BA791346DB009B1A194A1344174A5360BB79BA7917498A5CD2B242F00102D1B2144AD1546C
:4023800000F0F2FA0346FB7116E0BB790D4A9278D2B291B20F4A22F81310BB79BA790C498A5CD2B242F00202D1B2094AD15400F077FB0346FB7100BFFB7918460837BD4663
:4023C00080BD00BF00600040E8A0FF1F2481FF1FC4A0FF1FD8A0FF1F80B485B000AF0346FB710023FB73FF23BB7317E0FB7B104AD35C7B737A7B0F4913465B0013449B003B
:402400000B4408339B78DBB2FA799A4203D1FB7BBB730223FB73FB7B0133FB73FB7B012BE4D9BB7B18461437BD465DF8047B7047CCA0FF1F04A1FF1F80B582B000AF0023AE
:40244000BB71224B00221A70214B00221A70204B00225A700023FB7110E0FB791D4AD35C7B717B79002B06D07B79082B03D87B791846FFF713FFFB790133FB71FB79012B2E
:40248000EBD9154B1B78DBB2002B18D0114B1B78DBB2002B13D0114B1B78DBB2002B0ED00D4B1B78DBB2082B09D80A4B1B78DBB2082B04D8094B1B78DBB2082B01D9012301
:4024C000BB71BB7918460837BD4680BD7381FF1FC4A0FF1FD0A0FF1FC8A0FF1FCCA0FF1F80B485B000AF78600B46FB701346BB707B68DB7803F00303FB737B689B78DBB21D
:402500005BB2002B1ADAFB7B032B0AD0BB7803F001031549FA78CA54BB7843F00103BB701BE0BB789B08DBB203F001030F49FA78CA54BB7843F00403BB700EE0FB7B032BDD
:402540000BD0BB785B08DBB203F001030849FA78CA54BB7843F00203BB70BB7818461437BD465DF8047B7047C8A0FF1FCCA0FF1FD0A0FF1F80B582B000AF374B1B78BB7190
:40258000BB7903F01003002B63D00123FB71BB795BB2002B13DABB7903F00F03012B02D00023FB711DE000F061F82C4B1B78DBB2DBB25BB2002B14DA0023FB7111E0BB7990
:4025C00003F04003002B02D000F094F809E0BB7903F02003002B02D000F0B2F801E00023FB71FB79002B34D01B4B1B78BB71BB795BB2002B2DDB1A4B1B78DAB2194B1B783B
:40260000DBB21343BB71184ABB791370164B1B78DBB2BA799A421CD1104B1B78FB710E4B1B78DBB223F07F03BB71BB79002B0AD1094B0A4A1278D2B21A70074B1B78DBB275
:4026400003F00F03FB71054B1B78DBB2FA799A42E2D10837BD4680BD28600040FDA0FF1F72A1FF1F00A1FF1F2960004080B582B000AF1D4B1B78FB711B4AFB7913701A4B7E
:402680001B78FB71FB795BB2002B03DA174AFB79137025E0022000F043FA154B1B78DBB203F06003202B08D0402B0BD0002B0ED100F004FB0346FB710CE002F023FD0346B2
:4026C000FB7107E001F0C0FA0346FB7102E00023FB7100BFFB79002B02D1044B03221A700837BD4680BD00BF28600040FDA0FF1F0060004080B500AF104B1B78DBB2062B96
:4027000019D801A252F823F0372700003727000025270000372700002B270000372700003127000000F0FAF806E000F0A9F903E000F0D2F900E000BF80BD00BFE0A0FF1F09
:4027400080B500AF124B1B78DBB2062B1DD801A252F823F08B2700008B270000712700008B270000772700008B2700007D27000000F0DAF80AE000F029F907E0032000F078
:40278000CFF9044B03221A7000E000BF80BD00BFE0A0FF1FFDA0FF1F80B483B000AF0023FB71294B1B78DBB29AB2284B1B889BB213449AB2254B1A8015E02549FB79254A84
:4027C00052681278D2B2CA54224B5B680133214A5360FB790133FB711E4B1B889BB2013B9AB21C4B1A801B4B1B889BB2002B02D0FB79072BE1D9144B1B78DBB2082B02D044
:40280000FB79002B0FD0144B1B78DBB283F07F03DB43DAB2104B1A70104B0F221A70104B02221A7005E00D4B02221A700C4B02221A700C4AFB791370034AFB7913700C3734
:40284000BD465DF8047B7047DCA0FF1FDEA0FF1F00600040E8A0FF1F72A1FF1FFDA0FF1FE0A0FF1F00A1FF1F80B582B000AF164B1B889BB2002B02D100F02EF81EE0134B2E
:4028800002221A70124B00221A7000F069F9114BDB79DBB29BB21B029AB20E4B9B79DBB29BB21343FB80084B1B889BB2FA889A4202D2054AFB881380FFF76EFF0123184645
:4028C0000837BD4680BD00BFE8A0FF1FE0A0FF1F72A1FF1F0060004080B400AF0A4B02221A700A4B80221A70094B0F221A70094B00221A70084B00221A7001231846BD468B
:402900005DF8047B704700BFE0A0FF1F72A1FF1FFDA0FF1FDCA0FF1F00A1FF1F80B500AFFFF73AFF80BD00BF80B500AF0A4B1B78DBB29AB2094B1B889BB213449AB2074B7D
:402940001A80074B00221A70012000F0E9F8054B03221A7080BD00BFDCA0FF1FDEA0FF1FE0A0FF1FFDA0FF1F80B582B000AF124B04221A70114B80221A7000F0F1F8104B64
:40298000DB79DBB29BB21B029AB20D4B9B79DBB29BB21343FB800B4B1B889BB2FA889A4202D2084AFB881380074B0B221A70012318460837BD4680BDE0A0FF1F72A1FF1FB0
:4029C00000600040E8A0FF1FFDA0FF1F80B483B000AF0023BB71234B1B78DBB203F00F03DBB2023BFB71FB799AB21F4B1B889BB213449AB21C4B1A8018E01C4B5B681C4963
:402A0000BA798A5CD2B21A70184B5B680133174A5360BB790133BB71FB79013BFB71134B1B889BB2013B9AB2104B1A800F4B1B889BB2002B02D0FB79002BDED10D4AFB7926
:402A400013700D4B1B78DBB283F07F03DB43DAB2094B1A70094B0B221A700C37BD465DF8047B704729600040DEA0FF1FE8A0FF1F0060004000A1FF1F72A1FF1FFDA0FF1FAC
:402A800080B500AF044B00221A70012000F048F8024B03221A7080BDE0A0FF1FFDA0FF1F80B400AF084B06221A70084B06221A70074B80221A70074B00221A700123184669
:402AC000BD465DF8047B7047E0A0FF1FFDA0FF1F72A1FF1F00A1FF1F80B500AF0C4B1B78DBB2002B0AD00B4A094B1B78DBB263F07F03DBB21370064B00221A70064B002281
:402B00001A70012000F00CF8044B03221A7080BDFEA0FF1F08600040E0A0FF1FFDA0FF1F80B483B000AF0346FB710B4B9B68002B0CD0094B9B68FA791A70074B9B68074AD9
:402B4000128892B25A80044B00229A600C37BD465DF8047B704700BFE8A0FF1FDEA0FF1F80B400AF094B00221A80094B9B68002B07D0074B9B6800221A70054B9B6800229E
:402B80005A80BD465DF8047B704700BFDEA0FF1FE8A0FF1F80B400AF104A104B1B78DBB223F00103DBB213700D4B9B7C0D4B1B7BDBB203F00303012B08D00A4BDB7BDBB2AE
:402BC00083F07F03DB43DAB2064BDA73054B01225A73BD465DF8047B704700BF0B600040FC5F004004A1FF1F80B400AF104A104B1B78DBB223F00203DBB213700D4B93F83F
:402C000022300D4B1B7EDBB203F00303012B08D0094BDB7EDBB283F07F03DB43DAB2064BDA76054B01225A76BD465DF8047B70470B600040FC5F004004A1FF1F80B400AF90
:402C4000124A124B1B78DBB223F00403DBB213700F4B93F832300F4B93F82430DBB203F00303012B0AD00B4B93F82730DBB283F07F03DB43DAB2074B83F82720054B01225A
:402C800083F82520BD465DF8047B70470B600040FC5F004004A1FF1F80B400AFBD465DF8047B704780B500AFFFF7C4FA80BD00BF80B500AF00F0E4FF80BD00BF80B586B09A
:402CC00000AF0023FB75AF4B1B78FB7100233B61AD4B00221A80FB795BB2002B80F2FD80A84B5B78DBB20A2B00F2F58001A252F823F000BF2F2E0000D72E0000D72E000076
:402D0000D72E0000D72E0000D72E0000212D0000D72E0000A12E0000D72E0000B72E0000984BDB78DBB2012B0ED100F017FEB860BB685B68944A5360934B12221A80FFF774
:402D400093FD0346FB7571E08E4BDB78DBB2022B24D18C4B9B78DBB2184600F0D5FDB860BB68002B62D0BB685B68874A5360864B5B6803331B78DBB29BB21B029AB2824BD8
:402D80005B6802331B78DBB29BB213439AB27E4B1A80FFF769FD0346FB759DE0794BDB78DBB2032B3DD10023FB73784B3B6109E03B691B78BB71BB793A6913443B61FB7BBB
:402DC0000133FB736F4B9B78DBB2FA7B9A4204D23B691B78DBB2002BEAD16A4B9B78DBB2002B0BD0674B9B78DAB2694B1B7C9A4204D1684800F0A0F9664B3B613B691B78A1
:402E0000DBB2002B12D03B691B78DBB29AB25E4B1A805D4A3B695360FFF726FD0346FB755AE002F06FF90346FB7555E054E0FB7903F00303002B1FD0022B00D02FE0524BEF
:402E400002221A804F4B1B79DBB203F07F02524913465B0013449B000B449B78DAB24F4B1A704E4B00225A70474B4C4A5A60FFF7FBFC0346FB7512E0434B02221A80484B34
:402E80001B78DAB2454B1A70444B00225A703E4B424A5A60FFF7E8FC0346FB7500BF1BE0394B01221A80384B3E4A5A60FFF7DCFC0346FB7510E0344B01221A80314B1B7979
:402EC000DBB21A46384B13442F4A5360FFF7CCFC0346FB7500E000BF1AE12A4B5B78DBB2013B0A2B00F2138101A252F823F000BFFB2F00000F310000853000000F310000E4
:402F00001D2F00000F3100000F3100000F310000312F00000F310000B72F0000194B9B78DAB2224B1A70FFF7BBFD0346FB75EFE0144B9B787B717B79002B06D07B79013B4C
:402F4000DBB2184600F0E0FCB8607B79002B02D0BB68002B02D17B79002B2BD1114B1B78DBB27A799A4208D00E4A7B791370104B01221A70012000F0D7F9FFF791FD0346AD
:402F8000FB75C5E000600040E8A0FF1F608800000888000094A1FF1F04A1FF1F7481FF1F01A1FF1FFFA0FF1F70A1FF1FFEA0FF1FFCA0FF1FACE000F00FFE0346002B1BD00B
:402FC000564B1B793B71554B1B79DAB2544B1A703B79544AD35CDAB23B795349CB5CDBB29A4204D0514B01221A7000F06FFBFFF757FD0346FB758BE08AE0FB7903F003035E
:40300000012B22D0012B0DD3022B00D039E0434B9B78DBB2002B04D100F046FD0346FB752FE02EE03D4B9B78DBB2012B0CD1404B1B78DBB223F00203DAB23D4B1A70FFF791
:403040002FFD0346FB751CE01BE0344B1B79DBB2012B15D8314B9B78DBB2DB43DBB22F4A1279D2B211461046324A125CD2B21340DAB2304B5A54FFF713FD0346FB75FFE7A4
:4030800000BF45E0FB7903F00303012B22D0012B0DD3022B00D039E0204B9B78DBB2002B04D100F093FC0346FB752FE02EE01B4B9B78DBB2012B0CD11D4B1B78DBB243F055
:4030C0000203DAB21A4B1A70FFF7EAFC0346FB751CE01BE0114B1B79DBB2012B15D80F4B9B78DBB2DB43DBB20C4A1279D2B211461046104A125CD2B21340DAB20D4B5A5446
:40310000FFF7CEFC0346FB75FFE700BF00E000BFFB7D18461837BD4680BD00BF00600040F4A0FF1FE4A0FF1F70A1FF1FFCA0FF1F01A1FF1F74A1FF1FB0B58AB000AF7860B8
:40314000314B07F114041D460FCD0FC42B682370002387F826307B68002B52D07B6822221A707B68013303221A7007F10C031846FEF792FE022387F827303EE097F8273003
:403180007A68134497F8262007F128010A4412F81C2C1209D2B207F128010A4412F8142C1A7097F8273001337A68134400221A7097F8273002337A68134497F8262007F13E
:4031C00028010A4412F81C2C02F00F0207F128010A4412F8142C1A7097F8273003337A68134400221A7097F82630013387F8263097F82730043387F8273097F82730212BAC
:40320000BCD92837BD46B0BDBC6F000090B482B000AF0123FB7174E03F4AFB791B0113440C221A70FA793D4913465B0013449B000B445B79DBB2002B1AD0FA79374913461E
:403240005B0013449B000B441B79DBB2DBB25BB2002B06DA324AFB791B0113440C229A700CE02F4AFB791B01134408229A7005E02B4AFB791B01134480229A702648F97904
:40328000FA79264C13465B0013449B002344DB889BB2DAB20B0103449A711F48F979FA791E4C13465B0013449B002344DB889BB21B0A9BB2DAB20B010344DA711648F979A3
:4032C000FA79164C13465B0013449B002344DB889BB2DAB20B0103441A710F48F979FA790E4C13465B0013449B002344DB889BB21B0A9BB2DAB20B0103445A71FB790133BB
:40330000FB71FB79082B87D9064BFF221A700837BD4690BC704700BF7060004004A1FF1FFC5F00400A60004080B58AB000AF0346FB7100237B84002387F827304CE097F859
:403340002720C44913465B0013449B000B4400221A7097F82720BF4913465B0013449B000B4400229A7097F82720BA4913465B0013449B000B440022DA7097F82720B5494B
:4033800013465B0013449B000B44083300221A8097F82720AF4913465B0013449B000B44083300229A7097F82720AA4913465B0013449B000B4400225A7097F82720A54989
:4033C00013465B0013449B000B4400225A7197F82730013387F8273097F82730082BAED9FB79002B16D0002387F825300EE097F82530994A0021D15497F82530974A0021FE
:40340000D15497F82530013387F8253097F82530012BECD9924B1B78DBB2002B00F050810023FB768E4B1B78DBB2013BDBB2184600F06AFA78617B695B683B613B690733BB
:403440001B7803F04003002B08D0864B1B78DBB243F00103DAB2834B1A7007E0814B1B78DBB223F00103DAB27E4B1A707B6908337B617B691B7887F82730012387F825306B
:40348000B3E07B695B68FB61002387F82630A0E097F82520FB699B7803F07F039A4240F0908097F825206B4913465B0013449B000B4408331B889AB2FB699B889A420CD23A
:4034C00097F82520FB699888624913465B0013449B000B44083302461A80FB691B781A465D4B9B5CDAB2FB695B789A4269D197F82520FB699878574913465B0013449B005A
:403500000B4402461A7197F82520FB69D878514913465B0013449B000B4402461A70FB69DB7803F00303FB73FB699B78DBB25BB2002B1ADA97F82520FB7B012B01D10720C3
:4035400000E00D20434913465B0013449B000B4402465A7197F825203E4913465B0013449B000B4401225A7019E097F82520FB7B012B01D1052000E00920364913465B00CB
:4035800013449B000B4402465A7197F82520314913465B0013449B000B4400225A70FB699B790A2B03D0FB699B79022B09D197F82520FB7EF86911461A46FEF791FF034656
:4035C000FB76FB690833FB6197F82630013387F8263097F8262097F827309A42FFF458AF97F82530013387F8253097F82530082B7FF647AF7B695B68FB61002387F8253078
:4036000016E0FB699B7803F07F02FB691878114913465B0013449B000B44083302469A70FB690833FB6197F82530013387F8253097F8252097F827309A42E2D300F0A0F91E
:403640000246094B1A6000237B84012387F8273030E000BF04A1FF1F70A1FF1FE4A0FF1FFFA0FF1F01A1FF1FF8A0FF1F97F82720154913465B0013449B000B447A8CDA80F9
:4036800097F82720104913465B0013449B000B4408331B889AB27B8C13447B847B8C03F001039AB27B8C13447B8497F82730013387F8273097F82730082BD7D9FFF7A6FD66
:4036C0002837BD4680BD00BF04A1FF1F90B585B000AF874B1B78DBB2002B00F00681844B1B78DBB2013BDBB2184600F00DF978607B6808337B607B681B78FB707B685B6888
:40370000BB607C4B1B78BB700023FB73E8E0BB681B78BA789A4240F0DD80BB78764AD35CDAB2BB685B789A4240F0D480BB689B7803F07F037B70BB68DB7803F003033B708B
:403740007A786E4913465B0013449B000B440022DA707A78BB689878684913465B0013449B000B4402461A717A78BB68D878634913465B0013449B000B4402461A707A78D7
:40378000BB6898885D4913465B0013449B000B44083302461A80BB689B78DBB25BB2002B18DA7A783B78012B01D1072000E00D20524913465B0013449B000B4402465A71A7
:4037C0007A784E4913465B0013449B000B4401225A7017E07A783B78012B01D1052000E00920464913465B0013449B000B4402465A717A78414913465B0013449B000B448E
:4038000000225A703E4A7B781B01134401229A703B4879787A78394C13465B0013449B00234408331B889BB21B0A9BB2DAB20B0103441A70324879787A78304C13465B00F6
:4038400013449B00234408331B889BB2DAB20B0103445A702B4879787A78284C13465B0013449B002344DB889BB2DAB20B0103449A71244879787A78204C13465B001344E4
:403880009B002344DB889BB21B0A9BB2DAB20B010344DA711B4879787A78184C13465B0013449B002344DB889BB2DAB20B0103441A71144879787A78104C13465B00134443
:4038C0009B002344DB889BB21B0A9BB2DAB20B0103445A71BB680833BB60FB7B0133FB73FA7BFB789A42FFF412AF1437BD4690BDFFA0FF1FF4A0FF1F70A1FF1F04A1FF1FF5
:40390000FC5F00407060004080B485B000AF0346FB71104B1B78DBB20F4ADB0013445B68FB60FB681033FB60FB681B78FA799A4202D30023FB6005E0FB79DB00FA68134465
:403940005B68FB60FB6818461437BD465DF8047B704700BFDDA0FF1F6089000080B400AF054B1B78DBB2054ADB0013445B681846BD465DF8047B7047DDA0FF1F6089000045
:4039800080B584B000AF104B1B78DBB2013BDBB21846FFF7B9FFB860BB68002B0DD0BB685B681B79FB71FB790233DB00BA681344BB60BB685B68FB6001E00023FB60FB685B
:4039C00018461037BD4680BDFFA0FF1F80B582B000AF0023FB71314B1B79DBB203F07F03BB71BB79002B53D0BB79082B50D8BA79B9792B480B465B000B449B0003449B7869
:403A0000DBB243F00103D8B2254913465B0013449B000B4402469A70BA79214913465B0013449B000B440022DA70BA79B9791C480B465B000B449B0003445B78DBB243F04C
:403A40000203D8B2164913465B0013449B000B4402465A70BA79124913465B0013449B000B441B79DBB2DBB25BB2002B06DA0D4ABB791B0113448D229A7005E0094ABB79E5
:403A80001B01134489229A70FFF70AF80346FB71FB7918460837BD4680BD00BF0060004004A1FF1FFC5F004080B582B000AF0023FB71464B1B79DBB203F07F03BB71BB79F7
:403AC000002B7DD0BB79082B7AD8BA79B97940480B465B000B449B0003449B78DBB223F00103D8B23A4913465B0013449B000B4402469A70BA79364913465B0013449B0068
:403B00000B440022DA70334ABB791B0113447F221A70BA79B9792E480B465B000B449B0003445B78DBB223F00203D8B2284913465B0013449B000B4402465A70BA792449A9
:403B400013465B0013449B000B441B79DBB2DBB25BB2002B18DABA791D4913465B0013449B000B445B78DBB2012B06D1194ABB791B0113440C229A701EE0164ABB791B0197
:403B800013440D229A7017E0BA79114913465B0013449B000B445B78DBB2012B06D10D4ABB791B01134408229A7005E0094ABB791B01134409229A70FEF772FF0346FB7138
:403BC000FB7918460837BD4680BD00BF0060004004A1FF1FFC5F004080B584B000AF0023FB73154B1B79BB73144B1B78DBB2013BDBB21846FFF788FEB860BB685B681B7938
:403C0000FB71BA7BFB799A4202D9BB7B022B0ED8BB7BBA7B0A498A5CD1B20A4AD154BB7B054A9278D1B2064AD1540123FB73FB7B18461037BD4680BD00600040FFA0FF1FFE
:403C400070A1FF1FE4A0FF1F80B483B000AF0023FB710A4B1B78DBB2DBB25BB2002B06DA064B5B78DBB2012B00D000E000BFFB7918460C37BD465DF8047B70470060004025
:403C800080B400AF054B1B78DBB203F040039B09DBB21846BD465DF8047B70478F45004080B500AF00F054F9022000F0A9F9082000F0E6F9002000F0C3F9FDF7C7FF0346AF
:403CC0001A46084B1A70FDF7C1FF03461A46064B1A700648642100F063F80548642100F097F880BD7B81FF1F7C81FF1FD06F00003470000080B500AF00F04EF9074B1B788B
:403D000018460121FDF74EFE054B1B7818460121FDF748FE002000F0D3F980BD7981FF1F7A81FF1F80B500AF054B1B78002B04D1FFF7B6FF024B01221A70FFF7DBFF80BD63
:403D40007881FF1F80B584B000AFF8607A601A460B467B8113463B817B89F868194600F01FF83B897868194600F052F8FFF7DAFF1037BD4680BD00BF80B500AF064B1B783C
:403D80001846FDF755FE054B1B781846FDF750FE00F01CF980BD00BF7981FF1F7A81FF1F80B582B000AF78600B467B807B681B0C9BB2012001211A464FF4804300F060F827
:403DC00003461A46104B1A70104B19780F4B1B787A88084611461A460123FDF765FF0B4B1A787B689BB21046194645F68332FDF79BFF054B1A78054B1B7810461946FDF720
:403E0000B7FE0837BD4680BD7981FF1F7B81FF1F80B582B000AF78600B467B807B681B0C9BB2012001211A464FF4804300F05CF803461A46104B1A70104B19780F4B1B7837
:403E40007A88084611461A460123FDF72DFF0B4B1A787B689BB21046194645F68332FDF763FF054B1A78054B1B7810461946FDF77FFE0837BD4680BD7A81FF1F7C81FF1F46
:403E800090B585B002AF0446084611461A462346FB710346BB710B46BB8013467B80114B02221A700F4B1878F979BA7900230093002301930023FDF779FE0A4B1978BA88A2
:403EC0007B88084611461A46FDF714FE054B1B7818460221FDF7DEFD024B1B7818460C37BD4690BD4081FF1F90B585B002AF0446084611461A462346FB710346BB710B46BC
:403F0000BB8013467B80114B03221A700F4B1878F979BA7900230093002301930023FDF745FE0A4B1978BA887B88084611461A46FDF7E0FD054B1B7818460221FDF7AAFD91
:403F4000024B1B7818460C37BD4690BD4181FF1F80B500AF0D4B10221A700D4B00221A700B4A0B4B1B78DBB243F00403DBB21370084A084B1B78DBB243F00803DBB213706C
:403F8000022000F03DF800F0ABF880BD2C5800402D5800409F5A004080B400AF094A094B1B78DBB243F00803DBB21370064A064B1B78DBB243F00803DBB21370BD465DF8C9
:403FC000047B7047A8430040B843004080B400AF094A094B1B78DBB223F00803DBB21370064A064B1B78DBB223F00803DBB21370BD465DF8047B7047A8430040B84300406A
:4040000080B483B000AF0346FB710C4A0B4B1B78DBB223F00203DBB213700849074B1B78DAB2FB7903F00203DBB21343DBB20B700C37BD465DF8047B704700BF2C58004054
:4040400080B582B000AF0346FB710C4A0B4B1B78DBB223F00403DBB213700849074B1B78DAB2FB7903F00403DBB21343DBB20B7000F036F80837BD4680BD00BF2D58004043
:4040800080B582B000AF0346FB710C4A0B4B1B78DBB223F00C03DBB213700849074B1B78DAB2FB7903F00C03DBB21343DBB20B7000F016F80837BD4680BD00BF2C58004014
:4040C00080B483B000AF0346FB71044AFB7913700C37BD465DF8047B704700BF835B004080B483B000AF104B1B78DBB203F00C035B08FB710D4B1B78DBB203F00403DBB2A1
:40410000002B02D0FB790133FB71094AFB7903F1924303F59C731B78DBB213700C37BD465DF8047B704700BF2C5800402D5800400B46004080B500AF00F056F9022000F055
:40414000ABF9082000F0E8F9002000F0C5F9FDF77DFD03461A46094B1A70FDF777FD03461A46074B1A7007484FF47A6100F064F805484FF4FA6100F097F880BD8081FF1F73
:404180008181FF1F987000003880000080B500AF00F04EF9074B1B7818460121FDF702FC054B1B7818460121FDF7FCFB002000F0D3F980BD7E81FF1F7F81FF1F80B500AF27
:4041C000054B1B78002B04D1FFF7B4FF024B01221A70FFF7DBFF80BD7D81FF1F80B584B000AFF8607A601A460B467B8113463B817B89F868194600F01FF83B897868194637
:4042000000F052F8FFF7DAFF1037BD4680BD00BF80B500AF064B1B781846FDF709FC054B1B781846FDF704FC00F01CF980BD00BF7E81FF1F7F81FF1F80B582B000AF7860B1
:404240000B467B807B681B0C9BB2012001211A464FF4804300F060F803461A46104B1A70104B19780F4B1B787A88084611461A460123FDF719FD0B4B1A787B689BB21046A0
:40428000194645F68132FDF74FFD054B1A78054B1B7810461946FDF76BFC0837BD4680BD7E81FF1F8081FF1F80B582B000AF78600B467B807B681B0C9BB2012001211A46AD
:4042C0004FF4804300F05CF803461A46104B1A70104B19780F4B1B787A88084611461A460123FDF7E1FC0B4B1A787B689BB21046194645F68132FDF717FD054B1A78054B1C
:404300001B7810461946FDF733FC0837BD4680BD7F81FF1F8181FF1F90B585B002AF0446084611461A462346FB710346BB710B46BB8013467B80114B00221A700F4B1878BF
:40434000F979BA7900230093002301930023FDF72DFC0A4B1978BA887B88084611461A46FDF7C8FB054B1B7818460221FDF792FB024B1B7818460C37BD4690BD4281FF1F6D
:4043800090B585B002AF0446084611461A462346FB710346BB710B46BB8013467B80114B01221A700F4B1878F979BA7900230093002301930023FDF7F9FB0A4B1978BA8821
:4043C0007B88084611461A46FDF794FB054B1B7818460221FDF75EFB024B1B7818460C37BD4690BD4381FF1F80B500AF0D4B10221A700D4B00221A700B4A0B4B1B78DBB207
:4044000043F00403DBB21370084A084B1B78DBB243F00803DBB21370022000F03DF800F0ABF880BD24580040255800408F5A004080B400AF094A094B1B78DBB243F0020384
:40444000DBB21370064A064B1B78DBB243F00203DBB21370BD465DF8047B7047A8430040B843004080B400AF094A094B1B78DBB223F00203DBB21370064A064B1B78DBB29C
:4044800023F00203DBB21370BD465DF8047B7047A8430040B843004080B483B000AF0346FB710C4A0B4B1B78DBB223F00203DBB213700849074B1B78DAB2FB7903F00203F3
:4044C000DBB21343DBB20B700C37BD465DF8047B704700BF2458004080B582B000AF0346FB710C4A0B4B1B78DBB223F00403DBB213700849074B1B78DAB2FB7903F0040394
:40450000DBB21343DBB20B7000F036F80837BD4680BD00BF2558004080B582B000AF0346FB710C4A0B4B1B78DBB223F00C03DBB213700849074B1B78DAB2FB7903F00C0376
:40454000DBB21343DBB20B7000F016F80837BD4680BD00BF2458004080B483B000AF0346FB71044AFB7913700C37BD465DF8047B704700BF815B004080B483B000AF104B2B
:404580001B78DBB203F00C035B08FB710D4B1B78DBB203F00403DBB2002B02D0FB790133FB71094AFB7903F1924303F598731B78DBB213700C37BD465DF8047B704700BF34
:4045C00024580040255800400946004080B400AF094A094B1B78DBB243F00203DBB21370064A064B1B78DBB243F00203DBB21370BD465DF8047B7047A2430040B2430040D0
:4046000080B584B000AF03460A46FB8013467B7100F0B2F80346FB7300F0A2F80346BB81FA88BB899A4200F08780454B1B78DBB203F00203FB72FB7B002B20D1BB89002BFA
:4046400002D0FB88002B1AD1BB89002B0BD13D4AFB8813803C4A3C4B1B78DBB223F04003DBB2137068E0384A374B1B78DBB243F04003DBB21370334AFB8813805CE0FB7A1E
:40468000002B33D0314B00221A70314B02221A70304B00221A70304A2F4B1B78DBB203F07F03DBB21370284B1B78DBB203F00803002B02D0FB88002B18D1284ABB8913804C
:4046C000224B07221A7000BF204B1B78DBB203F00103002BF8D11A4A194B1B78DBB223F00203DBB21370194B00221A70144B1B78DBB203F00203002B13D0184AFB88138048
:40470000124A7B79002B01D0032300E00123137000BF0E4B1B78DBB203F00103002BF8D10AE0084AFB8813800549054B1B78DAB2FB7A1343DBB20B701037BD4680BD00BF35
:40474000A24300408440004086400040014000401040004014400040084000400240004080B400AF034B1B889BB21846BD465DF8047B70478440004080B400AF054B1B7884
:40478000DBB203F00703DBB21846BD465DF8047B704700BF8640004080B400AF094A094B1B78DBB243F00103DBB21370064A064B1B78DBB243F00103DBB21370BD465DF8E0
:4047C000047B7047A2430040B243004080B584B000AF03460A46FB8013467B7100F0B2F80346FB7300F0A2F80346BB81FA88BB899A4200F08780454B1B78DBB203F0010318
:40480000FB72FB7B002B20D1BB89002B02D0FB88002B1AD1BB89002B0BD13D4AFB8813803C4A3C4B1B78DBB223F04003DBB2137068E0384A374B1B78DBB243F04003DBB2B5
:404840001370334AFB8813805CE0FB7A002B33D0314B00221A70314B01221A70304B00221A70304A2F4B1B78DBB203F07F03DBB21370284B1B78DBB203F00803002B02D0A4
:40488000FB88002B18D1284ABB891380224B07221A7000BF204B1B78DBB203F00103002BF8D11A4A194B1B78DBB223F00103DBB21370194B00221A70144B1B78DBB203F032
:4048C0000103002B13D0184AFB881380124A7B79002B01D0032300E00123137000BF0E4B1B78DBB203F00103002BF8D10AE0084AFB8813800549054B1B78DAB2FB7A134338
:40490000DBB20B701037BD4680BD00BFA24300408040004082400040014000401040004014400040084000400240004080B400AF034B1B889BB21846BD465DF8047B704746
:404940008040004080B400AF054B1B78DBB203F00703DBB21846BD465DF8047B704700BF8240004080B500AF1B4B0F221A701B4B04221A6002200721FDF76CFA022018497B
:40498000FDF740FA154B02221A6001200721FDF761FA01201349FDF735FA00F069F9124B00221A70114B00221A70114B00221A70104B00221A70104B00221A700F4B00229E
:4049C0001A7000F091F800F0ADF80D4B00221A700C4B20221A7080BD8564004080E100E0CD4C0000A14D00008EA1FF1F80A1FF1F8DA1FF1F92A1FF1F8FA1FF1F90A1FF1F84
:404A0000866500408664004080B582B000AFFCF793FF0346FB71114A104B1B78DBB243F02003DBB213700E4A0D4B1B78DBB243F01003DBB213700B4A0A4B1B78DBB243F072
:404A40001003DBB21370FB791846FCF779FF00F01BF800F025F80837BD4680BD95640040966500409664004080B500AF054B1B78002B04D1FFF776FF024B01221A70FFF777
:404A8000C3FF80BD8281FF1F80B400AF034B04221A60BD465DF8047B704700BF00E100E080B400AF034B02221A60BD465DF8047B704700BF00E100E080B400AF034B0422C3
:404AC0001A60BD465DF8047B704700BF80E100E080B400AF034B02221A60BD465DF8047B704700BF80E100E080B582B000AFFFF7E3FF0A4B1B78DAB2094B1B78DBB203F088
:404B00000903DBB21343FB71054B00221A70FFF7BBFFFB7918460837BD4680BD6665004091A1FF1F80B582B000AFFFF7D1FF0A4B1B78DAB2094B1B78DBB203F04003DBB23B
:404B40001343FB71054B00221A70FFF7A9FFFB7918460837BD4680BD666400408CA1FF1F80B584B000AF0346FB71394B1B78FB73FB7B002B02D10723FB7302E0FB7B013B41
:404B8000FB73344B1B78DBB2FA7B9A42EDD0FFF793FF314B1B78DAB2304B1B78DBB203F00903DBB21343BB732C4ABB7B1370284B1B78DAB2274B1B78DBB29A420AD1274B90
:404BC0001B78DBB203F00403002B03D0244AFB79137037E01F4B1B78DBB20133DAB21D4B1A701C4B1B78DBB2072B02D9194B00221A70184B1B78DAB2154B1B78DBB29A4263
:404C000011D1134B1B78DBB20133DAB2104B1A700F4B1B78DBB2072B02D90D4B00221A70104B01221A700B4B1B78DBB219460E4AFB7953540D4A0D4B1B78DBB243F004038B
:404C4000DBB21370FFF720FF1037BD4680BD00BF8FA1FF1F90A1FF1F6665004091A1FF1F4564004092A1FF1F84A1FF1F8665004080B582B000AF01E0114B1B78114B1B7854
:404C8000DBB203F02003002BF6D1FCF755FE0346FB710D4A0C4B1B78DBB243F00103DBB21370094A084B1B78DBB223F00103DBB21370FB791846FCF743FE0837BD4680BDDD
:404CC00055640040666400409564004080B483B000AF37E02A4B1B78DAB22A4B1B78DBB203F00903DBB21343FB71264AFB791370244B1B78DBB203F00403002B21D0224B5B
:404D00001B78DBB2002B0FD1204B1B78DBB20133DAB21E4B1A701D4B1B78DBB2072B06D91A4B00221A7002E0174B00221A70184B164A1278D2B21146164A525CD2B21A702C
:404D400000E007E0114B1B78DAB2134B1B78DBB29A42BFD10D4B1B78DAB20F4B1B78DBB29A4207D10D4A0D4B1B78DBB223F00403DBB213700C37BD465DF8047B704700BFD9
:404D80006665004091A1FF1F92A1FF1F8FA1FF1F4564004084A1FF1F90A1FF1F8665004080B483B000AF2E4B1B78DAB22D4B1B78DBB203F04003DBB21343FB71294AFB79A1
:404DC000137040E0284B1B78BB71284B1B78DBB20133DAB2254B1A70244B1B78DBB2072B02D9224B00221A70204B1B78DAB2204B1B78DBB29A4211D11D4B1B78DBB201334D
:404E0000DAB21B4B1A701A4B1B78DBB2072B02D9174B00221A70174B01221A70134B1B78DBB21946144ABB7953540D4B1B78DAB20C4B1B78DBB203F04003DBB21343FB71BE
:404E4000084AFB791370074B1B78DBB203F02003002BB7D10C37BD465DF8047B704700BF666400408CA1FF1F556400408DA1FF1F80A1FF1F8EA1FF1F78A1FF1F80B400AFDE
:404E8000054A054B1B78DBB243F00103DBB21370BD465DF8047B70470859004080B485B000AF0346FB710B4B1B78DBB223F00803FB730849FB79DB00DBB203F00803DAB237
:404EC000FB7B1343DBB20B701437BD465DF8047B704700BF6051004080B400AF054B1B78DBB203F00803DB08DBB21846BD465DF8047B70476151004080B485B000AF034655
:404F0000FB710B4B1B78DBB223F00403FB730849FB799B00DBB203F00403DAB2FB7B1343DBB20B701437BD465DF8047B704700BF6051004080B400AF054B1B78DBB203F0F1
:404F400004039B08DBB21846BD465DF8047B70476151004080B500AF074B0F221A7000F091F800F04BF800F059F8044B00221A70034B00221A7080BD8465004085650040B9
:404F80008764004080B582B000AFFCF7D5FC0346FB710F4A0E4B1B78DBB243F02003DBB213700C4A0B4B1B78DBB243F01003DBB21370094A084B1B78DBB243F01003DBB244
:404FC0001370FB791846FCF7BBFC0837BD4680BD94650040956500409764004080B500AF054B1B78002B04D1FFF7B4FF024B01221A70FFF7C7FF80BD8381FF1F80B483B099
:4050000000AF054B1B78FB71FB7918460C37BD465DF8047B704700BF6565004080B483B000AF054B1B78FB71FB7918460C37BD465DF8047B704700BF6764004080B483B0CD
:4050400000AF054B1B88FB80FB8818460C37BD465DF8047B704700BF5465004080B400AF01E0064B1B88064B1B78DBB203F00803002BF6D1BD465DF8047B70475465004009
:405080006764004080B582B000AF01E0194B1B88194B1B78DBB203F00803002BF6D1FCF74BFC0346FB71154A144B1B78DBB243F00303DBB21370114A104B1B78DBB223F074
:4050C0000303DBB213700E4A0D4B1B78DBB243F00303DBB213700A4A094B1B78DBB223F00303DBB21370FB791846FCF729FC0837BD4680BD546500406764004094650040EA
:405100009565004080B582B000AF1A4B1B78DBB203F00303012B02D0022B04D012E0154B1B79BB7111E0134B1B79DBB203F07F02114913465B0013449B000B4408339B780F
:40514000BB7102E00023BB7100BF0C4B1A68BB7913441B78022B04D1FDF7CAF80346FB7102E00023FB7100BFFB7918460837BD4680BD00BF0060004004A1FF1FF8A0FF1F56
:4051800030B5224A21F00043934287B01BDD204A934205DD02460B4601F046F907B030BD02AA00F039F800F0030001281ED0022811D010B3DDE90201DDE9042300F040FA33
:4051C00001F10041EAE7002300930022002300F05FFF07B030BD01230093DDE90201DDE9042300F055FF01F10041D7E7DDE90201DDE9042300F024FAD0E70124DDE90201B3
:40520000DDE90423009400F043FFC7E7FB21E93FFFFFEF7F000000002DE9F04F924C21F00047A7428FB00E467FDD14468F4A974226DC83A3D3E90023002940F39D8101F07C
:40524000F3F88B4B80469F42894600F083807EA3D3E9002301F0E8F802460B464046C4E90023494601F0E0F877A3D3E9002301F0DBF80125C4E9020128460FB0BDE8F08F08
:405280007C4A974240F383807B4A974258DC3D15A5F21645A7EB05518B46824601F012FD01F010FA8046894642464B4650465946CDE9088901F0B8F80022704B01F068FA8C
:4052C0008B46824601F0FEFC01F0FCF98046894642464B4650465946CDE90A8901F0A4F80022664B01F054FA00220023CDE90C0101F0B6FC002800F0678100234046494696
:40530000002201F0ADFC002814BF012302235C480221019000912A4608A8214600F0B4FA002EC0F24781054606E0C2E9000100250024C2E90245002528460FB0BDE8F08F29
:4053400002460B4601F070F80025C4E90201C4E90001F1E73EA3D3E9002301F065F83EA3D3E9002306460F4601F05EF802460B463046C4E90023394601F056F836A3D3E9F8
:40538000002301F051F80125C4E90201D4E700F037FF33A3D3E900238046894601F0F8F90022384B01F042F801F08CFC054601F089F923A3D3E90023CDE9040101F0E8F974
:4053C00002460B464046494601F02EF81EA3D3E9002382468B46DDE9040101F0D9F91F2DCDE902015046594650DC274B6A1E53F82230BB424AD0DDE9022301F015F80246DC
:405400000B4681468846C4E900234A4643465046594601F009F8DDE9022301F005F802460B46002EC4E9022386DA4A4608F1004301F1004184E80C00E160A0606D427BE7DB
:4054400000004054FB21F93F3163621A61B4D03D0000601A61B4D03D7370032E8A19A33B83C8C96D305FE43FFB21E93F7BD90240FB21F93FFB213941FFFFEF7F00007041CD
:40548000E88900000000E03F68890000DDE9022300F0CAFF88463F15C8F30A53FB1A102B8146C4E90001B0DD59A3D3E90023DDE9040101F06DF98046894642464B465046FA
:4054C000594600F0B1FFCDE90601DDE906235046594600F0A9FF42464B4600F0A5FF4EA3D3E9002380468946DDE9040101F050F942464B4600F098FFCDE90201DDE9022399
:40550000DDE9060100F090FF0B4602468846C1F30A517F1A312F8146C4E9002374DD40A3D3E90023DDE9040101F032F980468946DDE9060142464B4600F076FF82468B46A6
:40554000DDE9060152465B4600F06EFF42464B4600F06AFF34A3D3E9002380468946DDE9040101F015F942464B4600F05DFFCDE90201504659463EE700F058FF2E4B804643
:405580009F42894622D02AA3D3E9002300F04EFF02460B464046C4E90023494600F044FF23A3D3E9002300F041FF4FF0FF35C4E90201C1E66268E36802F1004203F100438F
:4055C00045426260E360B7E60323A0E610A3D3E9002300F02BFF10A3D3E9002306460F4600F024FF02460B463046C4E90023394600F01AFF08A3D3E9002300F017FF4FF0AE
:40560000FF35C4E9020197E6DDE906ABFDE600BF0000601A61B4D03D7370032E8A19A33B0000002E8A19A33BC14920259A837B393163621A61B4D03DFB21F93FAFF3008048
:405640002DE9F04F21F00047B7F1795F85B00C4692469B4605466BDA01F034FB002800F0E7802A4623462846214601F091F874A3D3E900238046894601F08AF872A3D3E997
:40568000002300F0D3FE42464B4601F081F870A3D3E9002300F0C8FE42464B4601F078F86DA3D3E9002300F0C1FE42464B4601F06FF86BA3D3E9002300F0B6FE42464B46A8
:4056C00001F066F868A3D3E9002300F0AFFE42464B4601F05DF8CDE90001404649460022634B01F055F8DDE9002306460F464046494601F04DF85246804689465B4628468A
:40570000214601F045F802460B464046494600F08BFE02460B463046394600F085FE02460B460020534900F07FFE05B0BDE8F08F02460B4601F02CF841A3D3E900238046DA
:40574000894601F025F840A3D3E9002300F06EFE42464B4601F01CF83DA3D3E9002300F063FE42464B4601F013F83BA3D3E9002300F05CFE42464B4601F00AF838A3D3E941
:40578000002300F051FE42464B4601F001F836A3D3E9002300F04AFE4B46424600F0F8FF354BCDE900019F4297DD344B00229F4238DCA7F5001300202E4916461F4600F07B
:4057C00033FECDE90201404649460022284B00F0DFFF32463B4600F027FEDDE9002306460F464046494600F0D3FF5246804689465B462846214600F0CBFF02460B4640465C
:40580000494600F011FE02460B463046394600F00BFE02460B46DDE9020100F005FE05B0BDE8F08F164B0026CDE90223154FCAE71049002005B0BDE8F08F00BFAFF300807B
:40584000D43888BEE9FAA8BDC4B1B4BD9EEE213EAD529C804F7E923E9015CB19A001FA3E7751C1166CC1563F4C5555555555A53F0000E03F0000F03F3233D33F0000E93F7C
:405880000000E73F0000D23F2DE9F04F9E467E4DD41E85FB0465E417C4EBA504ADF51D7D24EAE4742546A69E0D940C93E343774C03EB430354F8264002EBC3032746099462
:4058C0000EF1FF3426460394F41904900A910893A5EB060516D42C44013422AEA79F08E057F8250000F0EEFE0135A542E6E9020108D0002DF4DA013500200021A542E6E935
:405900000201F6D1099B002B31DB099A0C9B74A901EBC20BC3EB4373039A24A9DB0001EBC20800930DF5E479039B002BC0F297814446049B0026A3F1080A009B002708EB14
:405940000305FAE9022374E8020100F021FF02460B463046394600F069FDAC4206460F46EFD1E9E90267D94508F10808DCD1099B10A99B4603F18043013B9B001A1D0A4415
:405980000B440F920E934FEACB039CA91A460693BBF1000F0B4453E9284528DD0DF5E87A0AEB02060FAF0022394B2046294600F0EFFE01F087F900F085FE0022354B804696
:4059C000894600F0E5FE02460B462046294600F02BFD01F077F976E9022347F8040F4946404600F023FD564504460D46DBD1DDF82090204629464A4600F092FC00224FF076
:405A00007F5304460D4600F0C3FE00F0FDFB0022214B00F0BDFE02460B462046294600F003FD04460D4601F04DF9804600F04AFE02460B46204629464C4600F0F5FC002CE8
:405A400006460F4640F3F1800BF1FF3110AB53F82130C9F1180043FA00F202FA00F55D1B10A8C9F1170340F8215090441D41002D3FDDBBF1000F08F1010840F3848200222C
:405A800014460FA912E000BFABAAAA2AF08A00000000703E0000704100002040C3F180700BB108600124013293450DDD51F8043F002CF3D0C3F1FF13013203F57F439345D9
:405AC0000B604FF00104F1DC089B002B0EDD012B00F0B380022B09D10BF1FF3210AB53F8223010A9C3F3150341F82230022D00F08380304639460022002301F0B1F8002866
:405B000000F0C980099B0BF1FF3A53450DDC10AB0F9803EB8B03002253F8041D834242EA0102F9D1002A40F01482099B10AA013B52F82330002B40F024820E9A012352F86A
:405B4000041D01330029FAD05B441A460B930BF1010393424DDC0D9A4FF0000803EB02090B9A0C9B09F180495B44CBEB020BA79A09F1FF3902EB890200924FEACB02DB008C
:405B8000059224AA02EB030B0793069B74AA02EB030A009B002653F8040F0027009300F091FD039BEBE80201002B1BDB079B03EB0804069B08EB030524AB1C441D44049BDF
:405BC000A3F10809F9E9022374E8020100F0E0FD02460B463046394600F028FCAC4206460F46EFD1059B08F108089845EAE90267CFD1DDF82CB0C6E632463B460020BF49FC
:405C000000F012FC06460F46002C3FF472AF089A0020BA4900F084FB02460B463046394600F002FC06460F4663E711D10BF1FF3310AA52F82350ED1519E70BF1FF3210AB39
:405C400053F8223010A9C3F3160341F822304DE70022AB4B01F022F858B9054649E700260027E9E90267D94508F108087FF45CAE7DE6BBF1000F08F10108C8BF02253FF761
:405C8000FEAE32463B4600209C4900F0CDFB022506460F462DE7089B30465A4239460395CDF8148000F03CFB0022964B04460D4600F0F4FF002800F0E1810022924B2046F8
:405CC000294600F065FD00F0FDFF064600F0FAFC00228C4B00F05CFD0B4602462946204600F0A2FB00F0EEFF089B0BF1010A1833089310AB43F82B0043F82A60089A002073
:405D00007E4900F00DFBBAF1000F04460D46C0F2CA800AF101034FEAC30874AF10AA009302EB830907EB080659F8040D00F0CAFC22462B4600F02CFD002266E90201724B2A
:405D40002046294600F024FDBE4204460D46EBD1A8F1080806EB08039B460DF59879CDF818A0DDF824A04FF00008CDF81090BAF1000FC0F29580B8F1000FC0F29180DFF8B6
:405D80008C915D4600260027002401E0444510DCF9E90223F5E8020100F0FAFC02460B463046394600F042FB0134A24506460F46ECDA049BABF1080B03EBC803C3E9006737
:405DC000009B08F101089845D1D1A69BDDF818A0DDF81090032B3BD8DFE813F0410004000400D70000273E46009B09EBC304384674E90223314600F019FB4C4507460E466B
:405E0000F5D1039B002B00F08B80D9E900010A9D334606F100463A466E602F6000F004FBBAF1000F03460CDD01261C46F9E90223204600F0FBFA0136B2450346F5DA039A42
:405E40000AB101F100411C460D460A9BC3E90245059B03F007000DF51D7DBDE8F08F00231946009A09EBC2091C4679E90223204600F0DCFA0AF1FF3ABAF1FF3F0346F3D173
:405E8000039A0AB101F100411C460D460A9BC3E90045059B03F007000DF51D7DBDE8F08F0026002785E7A69B032BD1D8DFE803F04E3030020DF59879039A00231E46002A16
:405EC00000F0C8800A9FD9F80800D9F80440D9F80C203B61059BD9F8001006F1004604F1004402F10042B86003F007007E617C60FA6039600DF51D7DBDE8F08F0000F03F5F
:405F00000000E03F000070410000703EF88A0000039B00273E460DF59879002B7FF475AFD9E9000135463C4633460A9E3A46C6E9004500F079FABAF1000F03463FF774AF2F
:405F40001C460D460A9BC3E9024581E70023194696E7089A10AB53F82A30183A0395CDF814800892002B7FF4C9AE10AB03EB8A0353F8041D0AF1FF3A183A0029F8D00892C6
:405F8000BCE60123E0E500249EE5BAF1000F93DD4FEACA0809EB08039B46D3E900677BE9022330463946CDE9002300F03FFA04460D46DDE9000122462B4600F035FA024653
:405FC0000B463046394600F031FACB4526462F46CBE90201CBE90045E1D1BAF1010F7FF76BAF09EB08039A46D3E900670DF59C7B7AE902231046194632463B46CDE900019A
:4060000000F014FA04460D46DDE9000122462B4600F00AFA32463B4600F008FADA4526462F46CAE90201CAE90045E1D100231E4608F108044C4450AD184674E90223314676
:4060400000F0F4F9AC4203460E46F5D1039A002A7FF438AFD9E90045D9E90289184631460A9A059BC2E9040103F00700C2E90045C2E902890DF51D7DBDE8F08F20462946FF
:4060800000F020FE10ABDA4643F82B0036E600BF2DE9F04F21F00046B6F1795F85B00C4690469946054604DA00F00CFE002800F083802A4623462846214600F069FB2A469F
:4060C000234606460F4600F063FB3FA3D3E9002382468B463046394600F05AFB3CA3D3E9002300F0A1F932463B4600F051FB3AA3D3E9002300F09AF932463B4600F048FBCC
:4061000037A3D3E9002300F08FF932463B4600F03FFB35A3D3E9002300F088F90E9BCDE900019BB3404649460022334B00F030FBDDE90023CDE902015046594600F028FB7B
:4061400002460B46DDE9020100F06EF932463B4600F01EFB42464B4600F066F924A3D3E9002306460F465046594600F011FB02460B463046394600F059F902460B462846AD
:40618000214600F051F905B0BDE8F08FDDE900233046394600F0FCFA15A3D3E9002300F043F952465B4600F0F3FA2A46234600F03DF905B0BDE8F08F2846214605B0BDE8C1
:4061C000F08F00BFAFF300807CD5CF5A3AD9E53DEB9C2B8AE6E55A3E7DFEB157E31DC73ED561C119A0012A3FA6F810111111813F495555555555C53F0000E03FAFF3008077
:4062000021F00041704700BF2DE9F047C1F30A58A8F2FF36132E0B4604460D460246894607461DDC002E40DBDFF8F08048FA06F808EA010E5EEA020217D035A3D3E900231D
:4062400000F0F4F80022002300F032FD20B1002D40DB29EA0805002738462946BDE8F087332E06DDB6F5806F2FD020461946BDE8F087A8F213424FF0FF3A2AFA02FA1AEA2C
:40628000000FF2D022A3D3E9002300F0CFF80022002300F00DFD0028DED0002D1FDB4D4627EA0A0738462946D8E719A3D3E9002300F0BCF80022002300F0FAFC0028CBD0E8
:4062C000002D1ADB00273D46C6E702460B4600F0ADF8CCE74FF4801333419944B9E7142E08D0C8F5866808F10308012303FA08F31F19D4D309F10109D1E725F00042064B55
:40630000224318BF1D460027A6E700BFAFF300809C7500883CE4377E0000F0BFFFFF0F00F8B5C1F30A5604460D460B46174616BB21F00043034332D00022314B00F028FAD6
:40634000304A044697420D460B4637DB40F2FE72C1F30A56363E3E44964215DD24A1D1E9000122462B4600F053F821A3D3E9002300F00EFAF8BD40F2FF72964224D040F2CF
:40638000FE723E449642E9DC002E09DD23F0FF4323F4E00343EA065520462946F8BDF8BD16F1350F15DA4CF250339F42D6DC12A1D1E9000122462B4600F02AF80EA3D3E9D0
:4063C000002300F0E5F9F8BD02460B4600F02EF8F8BD23F0FF4323F4E003363643EA0655204629460022084B00F0D2F9F8BD00BF9C7500883CE4377E59F3F8C21F6EA50130
:4064000000005043B03CFFFF0000903CAFF3008003F0004321F0004243EA0201704700BF81F0004102E000BF83F0004330B54FEA41044FEA430594EA050F08BF90EA020FF1
:406440001FBF54EA000C55EA020C7FEA645C7FEA655C00F0E2804FEA5454D4EB5555B8BF6D420CDD2C4480EA020281EA030382EA000083EA010180EA020281EA0303362D3D
:4064800088BF30BD11F0004F4FEA01314FF4801C4CEA113102D0404261EB410113F0004F4FEA03334CEA133302D0524263EB430394EA050F00F0A780A4F10104D5F1200E46
:4064C0000DDB02FA0EFC22FA05F2801841F1000103FA0EF2801843FA05F359410EE0A5F120050EF1200E012A03FA0EFC28BF4CF0020C43FA05F3C01851EBE37101F0004560
:4065000007D54FF0000EDCF1000C7EEB00006EEB0101B1F5801F1BD3B1F5001F0CD349085FEA30004FEA3C0C04F101044FEA445212F5800F80F09A80BCF1004F08BF5FEA7E
:40654000500C50F1000041EB045141EA050130BD5FEA4C0C404141EB010111F4801FA4F10104E9D191F0000F04BF01460020B1FA81F308BF2033A3F10B03B3F120020CDA56
:406580000C3208DD02F1140CC2F10C0201FA0CF021FA02F10CE002F11402D8BFC2F1200C01FA02F120FA0CFCDCBF41EA0C019040E41AA2BF01EB0451294330BD6FEA040467
:4065C0001F3C1CDA0C340EDC04F11404C4F1200220FA04F001FA02F340EA030021FA04F345EA030130BDC4F10C04C4F1200220FA02F001FA04F340EA0300294630BD21FAA1
:4066000004F0294630BD94F0000F83F4801306BF81F480110134013D4EE77FEA645C18BF7FEA655C29D094EA050F08BF90EA020F05D054EA000C04BF1946104630BD91EAF4
:40664000030F1EBF0021002030BD5FEA545C05D14000494128BF41F0004130BD14F580043CBF01F5801130BD01F0004545F0FE4141F470014FF0000030BD7FEA645C1ABFA4
:40668000194610467FEA655C1CBF0B46024650EA013406BF52EA033591EA030F41F4002130BD00BF90F0000F04BF0021704730B54FF4806404F132044FF000054FF000016B
:4066C00050E700BF90F0000F04BF0021704730B54FF4806404F1320410F0004548BF40424FF000013EE700BF42004FEAE2014FEA31014FEA02701FBF12F07F4393F07F4FEA
:4067000081F06051704792F0000F14BF93F07F4F704730B54FF4607401F0004521F0004120E700BF50EA010208BF704730B54FF000050AE050EA010208BF704730B511F05B
:40674000004502D5404261EB41014FF4806404F132045FEA915C3FF4DCAE4FF003025FEADC0C18BF03325FEADC0C18BF033202EBDC02C2F1200300FA03FC20FA02F001FA49
:4067800003FE40EA0E0021FA02F11444C1E600BF70B54FF0FF0C4CF4E06C1CEA11541DBF1CEA135594EA0C0F95EA0C0F00F0DEF82C4481EA030621EA4C5123EA4C5350EAB9
:4067C000013518BF52EA033541F4801143F4801338D0A0FB02CE4FF00005E1FB02E506F00042E0FB03E54FF00006E1FB03569CF0000F18BF4EF0010EA4F1FF04B6F5007F18
:4068000064F5407404D25FEA4E0E6D4146EB060642EAC62141EA55514FEAC52040EA5E504FEACE2EB4F1FD0C88BFBCF5E06F1ED8BEF1004F08BF5FEA500E50F1000041EB12
:40684000045170BD06F0004646EA010140EA020081EA0301B4EB5C04C2BFD4EB0C0541EA045170BD41F480114FF0000E013C00F3AB8014F1360FDEBF002001F0004170BDBC
:40688000C4F10004203C35DA0C341BDC04F11404C4F1200500FA05F320FA04F001FA05F240EA020001F0004221F0004110EBD37021FA04F642EB06015EEA430E08BF20EA02
:4068C000D37070BDC4F10C04C4F1200500FA04F320FA05F001FA04F240EA020001F0004110EBD37041F100015EEA430E08BF20EAD37070BDC4F1200500FA05F24EEA020EDC
:4069000020FA04F301FA05F243EA020321FA04F001F0004121FA04F220EA020000EBD3705EEA430E08BF20EAD37070BD94F0000F0FD101F00046400041EB010111F4801F00
:4069400008BF013CF7D041EA060195F0000F18BF704703F00046520043EB030313F4801F08BF013DF7D043EA0603704794EA0C0F0CEA135518BF95EA0C0F0CD050EA410615
:4069800018BF52EA4306D1D181EA030101F000414FF0000070BD50EA410606BF1046194652EA430619D094EA0C0F02D150EA013613D195EA0C0F05D152EA03361CBF10468C
:4069C00019460AD181EA030101F0004141F0FE4141F470014FF0000070BD41F0FE4141F4780170BD70B54FF0FF0C4CF4E06C1CEA11541DBF1CEA135594EA0C0F95EA0C0F0C
:406A000000F0A7F8A4EB050481EA030E52EA03354FEA013100F088804FEA03334FF0805545EA131343EA12634FEA022245EA111545EA10654FEA00260EF000419D4208BFC8
:406A4000964244F1FD0404F5407402D25B084FEA3202B61A65EB03055B084FEA32024FF480104FF4002CB6EB020E75EB030E22BFB61A754640EA0C005B084FEA3202B6EB48
:406A8000020E75EB030E22BFB61A754640EA5C005B084FEA3202B6EB020E75EB030E22BFB61A754640EA9C005B084FEA3202B6EB020E75EB030E22BFB61A754640EADC00DB
:406AC00055EA060E18D04FEA051545EA16754FEA06164FEAC30343EA52734FEAC2025FEA1C1CC0D111F4801F0BD141EA00014FF000004FF0004CB6E711F4801F04BF01433B
:406B00000020B4F1FD0C88BFBCF5E06F3FF6AFAEB5EB030C04BFB6EB020C5FEA500C50F1000041EB045170BD0EF0004E4EEA113114EB5C04C2BFD4EB0C0541EA045170BDD6
:406B400041F480114FF0000E013C90E645EA060E8DE60CEA135594EA0C0F08BF95EA0C0F3FF43BAF94EA0C0F0AD150EA01347FF434AF95EA0C0F7FF425AF104619462CE742
:406B800095EA0C0F06D152EA03353FF4FDAE1046194622E750EA410618BF52EA43067FF4C5AE50EA41047FF40DAF52EA43057FF4EBAE12E74FF0FF3C06E000BF4FF0010CEF
:406BC00002E000BF4FF0010C4DF804CD4FEA410C7FEA6C5C4FEA430C18BF7FEA6C5C1BD001B050EA410C0CBF52EA430C91EA030F02BF90EA020F0020704710F1000F91EA97
:406C0000030F58BF994208BF90422CBFD8176FEAE37040F0010070474FEA410C7FEA6C5C02D150EA013C07D14FEA430C7FEA6C5CD6D152EA033CD3D05DF8040B704700BF18
:406C40008446104662468C461946634600E000BF01B5FFF7B7FF002848BF10F1000F01BD4DF808EDFFF7F4FF0CBF012000205DF808FB00BF4DF808EDFFF7EAFF34BF012001
:406C800000205DF808FB00BF4DF808EDFFF7E0FF94BF012000205DF808FB00BF4DF808EDFFF7CEFF94BF012000205DF808FB00BF4DF808EDFFF7C4FF34BF012000205DF8BF
:406CC00008FB00BF4FEA410212F5001215D211D56FF47873B3EB625212D94FEAC12343F0004343EA505311F0004F23FA02F018BF404270474FF00000704750EA013005D1DC
:406D000011F0004008BF6FF0004070474FF00000704700BF4A0011D212F5001211D20DD56FF47873B3EB62520ED44FEAC12343F0004343EA505323FA02F070474FF000004B
:406D4000704750EA013002D14FF0FF3070474FF0000070470E4B70B51E460E4C0025E41AA410A54204D056F8253098470135F8E701F0E6FE084B094C1E46E41AA4100025E6
:406D8000A54204D056F8253098470135F8E770BD4C8B00004C8B00004C8B0000548B000010B5431E0A44914204D011F8014B03F8014FF8E710BD03460244934202D003F858
:406DC000011BFAE77047000000000000000000002564202573202564000000007371756172650000666E203D2025642C206D6F6465203D2025732C206E6577467265712040
:406E00003D2025640D0A000073696E6500000000747269616E676C6500000000736177746F6F74680000000064630000496E76616C6964206D6F64653A2025730D0A00007B
:406E40006F66660053746F7070656420576176654441432025640D0A00000000496E76616C696420636F6D6D616E643A2025730D0A000000646174613A200000467265716C
:406E800075656E63793A200090020000880200008002000078020000700200007002000070020000700200006881FF1F6881FF1F6881FF1F6881FF1F6881FF1F6881FF1F4A
:406EC0006881FF1F6881FF1F6881FF1F6881FF1F6881FF1F6881FF1F6881FF1F0800004810000048180000482000004830000048380000484000004848000048D0030048C6
:406F0000F00300482800004850000048D000004850010048D001004850020048D002004850030048100400482004004830040048B004004830050048B005004830060048BD
:406F4000B006004830070048B007004830080048B008004830090048B0090048300A0048B00A0048300B0048B00B0048300C0048B00C0048300D0048B00D0048300E0048F1
:406F8000B00E0048300F0048B00F004830100048B010004830110048B011004830120048B012004830130048B0130048303132333435363738394142434445463031323389
:406FC0003435363738394142434445460000000080878F979FA6AEB5BCC2C9CFD5DBE0E5E9EDF1F4F6F9FAFCFCFCFCFCFAF9F6F4F1EDE9E5E0DBD5CFC9C2BCB5AEA69F9757
:407000008F87807870686059514A433D36302A241F1A16120E0B09060503030303030506090B0E12161A1F242A30363D434A51596068707880848A8F94989EA2A8ACB2B69A
:40704000BCC0C6CAD0D5DADEE4E8EEF2F8FCF8F2EEE8E4DEDAD4D0CAC6C0BCB6B2ADA8A29E98948F8A84807A76706B66615D58534E49443E39342F2A25211C17120D080399
:40708000080D12171C21252A2F34393E44494E53585D61666B70767A8080808080808181818181828282828283838383838484848484858585858586868686868787878732
:4070C00087888888888889898989898A8A8A8A8A8A8B8B8B8B8B8C8C8C8C8C8D8D8D8D8D8E8E8E8E8E8F8F8F8F8F909090909091919191919292929292929393939393942F
:407100009494949495959595959696969696979797979798989898989899999999999A9A9A9A9A9B9B9B9B9B9C9C9C9C9C9C9D9D9D9D9D9E9E9E9E9E9F9F9F9F9FA0A0A0D5
:40714000A0A0A0A1A1A1A1A1A2A2A2A2A2A3A3A3A3A3A4A4A4A4A4A4A5A5A5A5A5A6A6A6A6A6A7A7A7A7A7A7A8A8A8A8A8A9A9A9A9A9A9AAAAAAAAAAABABABABABACACAC8D
:40718000ACACACADADADADADAEAEAEAEAEAEAFAFAFAFAFB0B0B0B0B0B0B1B1B1B1B1B2B2B2B2B2B2B3B3B3B3B3B3B4B4B4B4B4B5B5B5B5B5B5B6B6B6B6B6B6B7B7B7B7B75F
:4071C000B8B8B8B8B8B8B9B9B9B9B9B9BABABABABABBBBBBBBBBBBBCBCBCBCBCBCBDBDBDBDBDBDBEBEBEBEBEBEBFBFBFBFBFBFC0C0C0C0C0C0C1C1C1C1C1C1C2C2C2C2C251
:40720000C2C3C3C3C3C3C3C4C4C4C4C4C4C5C5C5C5C5C5C6C6C6C6C6C6C7C7C7C7C7C7C8C8C8C8C8C8C8C9C9C9C9C9C9CACACACACACACBCBCBCBCBCBCBCCCCCCCCCCCCCD6A
